{
  "contractName": "Francistan",
  "abi": [
    {
      "inputs": [],
      "stateMutability": "nonpayable",
      "type": "constructor"
    },
    {
      "anonymous": false,
      "inputs": [
        {
          "indexed": true,
          "internalType": "address",
          "name": "owner",
          "type": "address"
        },
        {
          "indexed": true,
          "internalType": "address",
          "name": "approved",
          "type": "address"
        },
        {
          "indexed": true,
          "internalType": "uint256",
          "name": "tokenId",
          "type": "uint256"
        }
      ],
      "name": "Approval",
      "type": "event"
    },
    {
      "anonymous": false,
      "inputs": [
        {
          "indexed": true,
          "internalType": "address",
          "name": "owner",
          "type": "address"
        },
        {
          "indexed": true,
          "internalType": "address",
          "name": "operator",
          "type": "address"
        },
        {
          "indexed": false,
          "internalType": "bool",
          "name": "approved",
          "type": "bool"
        }
      ],
      "name": "ApprovalForAll",
      "type": "event"
    },
    {
      "anonymous": false,
      "inputs": [
        {
          "indexed": true,
          "internalType": "address",
          "name": "from",
          "type": "address"
        },
        {
          "indexed": true,
          "internalType": "address",
          "name": "to",
          "type": "address"
        },
        {
          "indexed": true,
          "internalType": "uint256",
          "name": "tokenId",
          "type": "uint256"
        }
      ],
      "name": "Transfer",
      "type": "event"
    },
    {
      "inputs": [
        {
          "internalType": "uint256",
          "name": "",
          "type": "uint256"
        }
      ],
      "name": "animals",
      "outputs": [
        {
          "internalType": "string",
          "name": "feathers",
          "type": "string"
        },
        {
          "internalType": "uint256",
          "name": "weight",
          "type": "uint256"
        },
        {
          "internalType": "uint256",
          "name": "size",
          "type": "uint256"
        },
        {
          "internalType": "uint256",
          "name": "aggressivity",
          "type": "uint256"
        }
      ],
      "stateMutability": "view",
      "type": "function",
      "constant": true
    },
    {
      "inputs": [
        {
          "internalType": "address",
          "name": "to",
          "type": "address"
        },
        {
          "internalType": "uint256",
          "name": "tokenId",
          "type": "uint256"
        }
      ],
      "name": "approve",
      "outputs": [],
      "stateMutability": "nonpayable",
      "type": "function"
    },
    {
      "inputs": [
        {
          "internalType": "uint256",
          "name": "",
          "type": "uint256"
        }
      ],
      "name": "auction",
      "outputs": [
        {
          "internalType": "uint256",
          "name": "price",
          "type": "uint256"
        },
        {
          "internalType": "uint256",
          "name": "time",
          "type": "uint256"
        },
        {
          "internalType": "bool",
          "name": "isActive",
          "type": "bool"
        },
        {
          "internalType": "address payable",
          "name": "bidder",
          "type": "address"
        }
      ],
      "stateMutability": "view",
      "type": "function",
      "constant": true
    },
    {
      "inputs": [
        {
          "internalType": "address",
          "name": "owner",
          "type": "address"
        }
      ],
      "name": "balanceOf",
      "outputs": [
        {
          "internalType": "uint256",
          "name": "",
          "type": "uint256"
        }
      ],
      "stateMutability": "view",
      "type": "function",
      "constant": true
    },
    {
      "inputs": [],
      "name": "baseURI",
      "outputs": [
        {
          "internalType": "string",
          "name": "",
          "type": "string"
        }
      ],
      "stateMutability": "view",
      "type": "function",
      "constant": true
    },
    {
      "inputs": [
        {
          "internalType": "address",
          "name": "",
          "type": "address"
        }
      ],
      "name": "breeders",
      "outputs": [
        {
          "internalType": "bool",
          "name": "",
          "type": "bool"
        }
      ],
      "stateMutability": "view",
      "type": "function",
      "constant": true
    },
    {
      "inputs": [
        {
          "internalType": "uint256",
          "name": "",
          "type": "uint256"
        }
      ],
      "name": "fight",
      "outputs": [
        {
          "internalType": "uint256",
          "name": "tokenId",
          "type": "uint256"
        },
        {
          "internalType": "uint256",
          "name": "stake",
          "type": "uint256"
        },
        {
          "internalType": "bool",
          "name": "isActive",
          "type": "bool"
        }
      ],
      "stateMutability": "view",
      "type": "function",
      "constant": true
    },
    {
      "inputs": [
        {
          "internalType": "uint256",
          "name": "tokenId",
          "type": "uint256"
        }
      ],
      "name": "getApproved",
      "outputs": [
        {
          "internalType": "address",
          "name": "",
          "type": "address"
        }
      ],
      "stateMutability": "view",
      "type": "function",
      "constant": true
    },
    {
      "inputs": [
        {
          "internalType": "address",
          "name": "owner",
          "type": "address"
        },
        {
          "internalType": "address",
          "name": "operator",
          "type": "address"
        }
      ],
      "name": "isApprovedForAll",
      "outputs": [
        {
          "internalType": "bool",
          "name": "",
          "type": "bool"
        }
      ],
      "stateMutability": "view",
      "type": "function",
      "constant": true
    },
    {
      "inputs": [],
      "name": "name",
      "outputs": [
        {
          "internalType": "string",
          "name": "",
          "type": "string"
        }
      ],
      "stateMutability": "view",
      "type": "function",
      "constant": true
    },
    {
      "inputs": [
        {
          "internalType": "uint256",
          "name": "tokenId",
          "type": "uint256"
        }
      ],
      "name": "ownerOf",
      "outputs": [
        {
          "internalType": "address",
          "name": "",
          "type": "address"
        }
      ],
      "stateMutability": "view",
      "type": "function",
      "constant": true
    },
    {
      "inputs": [
        {
          "internalType": "address",
          "name": "from",
          "type": "address"
        },
        {
          "internalType": "address",
          "name": "to",
          "type": "address"
        },
        {
          "internalType": "uint256",
          "name": "tokenId",
          "type": "uint256"
        }
      ],
      "name": "safeTransferFrom",
      "outputs": [],
      "stateMutability": "nonpayable",
      "type": "function"
    },
    {
      "inputs": [
        {
          "internalType": "address",
          "name": "from",
          "type": "address"
        },
        {
          "internalType": "address",
          "name": "to",
          "type": "address"
        },
        {
          "internalType": "uint256",
          "name": "tokenId",
          "type": "uint256"
        },
        {
          "internalType": "bytes",
          "name": "_data",
          "type": "bytes"
        }
      ],
      "name": "safeTransferFrom",
      "outputs": [],
      "stateMutability": "nonpayable",
      "type": "function"
    },
    {
      "inputs": [
        {
          "internalType": "address",
          "name": "operator",
          "type": "address"
        },
        {
          "internalType": "bool",
          "name": "approved",
          "type": "bool"
        }
      ],
      "name": "setApprovalForAll",
      "outputs": [],
      "stateMutability": "nonpayable",
      "type": "function"
    },
    {
      "inputs": [
        {
          "internalType": "bytes4",
          "name": "interfaceId",
          "type": "bytes4"
        }
      ],
      "name": "supportsInterface",
      "outputs": [
        {
          "internalType": "bool",
          "name": "",
          "type": "bool"
        }
      ],
      "stateMutability": "view",
      "type": "function",
      "constant": true
    },
    {
      "inputs": [],
      "name": "symbol",
      "outputs": [
        {
          "internalType": "string",
          "name": "",
          "type": "string"
        }
      ],
      "stateMutability": "view",
      "type": "function",
      "constant": true
    },
    {
      "inputs": [
        {
          "internalType": "uint256",
          "name": "index",
          "type": "uint256"
        }
      ],
      "name": "tokenByIndex",
      "outputs": [
        {
          "internalType": "uint256",
          "name": "",
          "type": "uint256"
        }
      ],
      "stateMutability": "view",
      "type": "function",
      "constant": true
    },
    {
      "inputs": [
        {
          "internalType": "address",
          "name": "owner",
          "type": "address"
        },
        {
          "internalType": "uint256",
          "name": "index",
          "type": "uint256"
        }
      ],
      "name": "tokenOfOwnerByIndex",
      "outputs": [
        {
          "internalType": "uint256",
          "name": "",
          "type": "uint256"
        }
      ],
      "stateMutability": "view",
      "type": "function",
      "constant": true
    },
    {
      "inputs": [
        {
          "internalType": "uint256",
          "name": "tokenId",
          "type": "uint256"
        }
      ],
      "name": "tokenURI",
      "outputs": [
        {
          "internalType": "string",
          "name": "",
          "type": "string"
        }
      ],
      "stateMutability": "view",
      "type": "function",
      "constant": true
    },
    {
      "inputs": [],
      "name": "totalSupply",
      "outputs": [
        {
          "internalType": "uint256",
          "name": "",
          "type": "uint256"
        }
      ],
      "stateMutability": "view",
      "type": "function",
      "constant": true
    },
    {
      "inputs": [
        {
          "internalType": "address",
          "name": "from",
          "type": "address"
        },
        {
          "internalType": "address",
          "name": "to",
          "type": "address"
        },
        {
          "internalType": "uint256",
          "name": "tokenId",
          "type": "uint256"
        }
      ],
      "name": "transferFrom",
      "outputs": [],
      "stateMutability": "nonpayable",
      "type": "function"
    },
    {
      "inputs": [
        {
          "internalType": "address",
          "name": "breeder",
          "type": "address"
        }
      ],
      "name": "registerBreeder",
      "outputs": [],
      "stateMutability": "nonpayable",
      "type": "function"
    },
    {
      "inputs": [
        {
          "internalType": "address",
          "name": "breeder",
          "type": "address"
        },
        {
          "internalType": "string",
          "name": "feathers",
          "type": "string"
        },
        {
          "internalType": "uint256",
          "name": "weight",
          "type": "uint256"
        },
        {
          "internalType": "uint256",
          "name": "size",
          "type": "uint256"
        },
        {
          "internalType": "uint256",
          "name": "aggressivity",
          "type": "uint256"
        }
      ],
      "name": "declareAnimal",
      "outputs": [
        {
          "internalType": "uint256",
          "name": "",
          "type": "uint256"
        }
      ],
      "stateMutability": "nonpayable",
      "type": "function"
    },
    {
      "inputs": [
        {
          "internalType": "uint256",
          "name": "tokenId",
          "type": "uint256"
        }
      ],
      "name": "deadAnimal",
      "outputs": [],
      "stateMutability": "nonpayable",
      "type": "function"
    },
    {
      "inputs": [
        {
          "internalType": "uint256",
          "name": "tokenId1",
          "type": "uint256"
        },
        {
          "internalType": "uint256",
          "name": "tokenId2",
          "type": "uint256"
        }
      ],
      "name": "breedAnimal",
      "outputs": [],
      "stateMutability": "nonpayable",
      "type": "function"
    },
    {
      "inputs": [
        {
          "internalType": "uint256",
          "name": "price",
          "type": "uint256"
        },
        {
          "internalType": "uint256",
          "name": "tokenId",
          "type": "uint256"
        }
      ],
      "name": "createAuction",
      "outputs": [],
      "stateMutability": "nonpayable",
      "type": "function"
    },
    {
      "inputs": [
        {
          "internalType": "uint256",
          "name": "tokenId",
          "type": "uint256"
        }
      ],
      "name": "bidOnAuction",
      "outputs": [],
      "stateMutability": "payable",
      "type": "function",
      "payable": true
    },
    {
      "inputs": [
        {
          "internalType": "uint256",
          "name": "tokenId",
          "type": "uint256"
        }
      ],
      "name": "acceptAuction",
      "outputs": [],
      "stateMutability": "nonpayable",
      "type": "function"
    },
    {
      "inputs": [
        {
          "internalType": "uint256",
          "name": "tokenId",
          "type": "uint256"
        }
      ],
      "name": "claimAuction",
      "outputs": [],
      "stateMutability": "nonpayable",
      "type": "function"
    },
    {
      "inputs": [
        {
          "internalType": "uint256",
          "name": "tokenId",
          "type": "uint256"
        }
      ],
      "name": "proposeFight",
      "outputs": [],
      "stateMutability": "payable",
      "type": "function",
      "payable": true
    },
    {
      "inputs": [
        {
          "internalType": "uint256",
          "name": "tokenId1",
          "type": "uint256"
        },
        {
          "internalType": "uint256",
          "name": "tokenId2",
          "type": "uint256"
        }
      ],
      "name": "agreeToFight",
      "outputs": [],
      "stateMutability": "payable",
      "type": "function",
      "payable": true
    }
  ],
  "bytecode": "0x60806040526000600a5560006010553480156200001b57600080fd5b506040518060400160405280600a81526020017f4672616e63697374616e000000000000000000000000000000000000000000008152506040518060400160405280600381526020017f436f710000000000000000000000000000000000000000000000000000000000815250620000a06301ffc9a760e01b6200016360201b60201c565b8160069080519060200190620000b89291906200026c565b508060079080519060200190620000d19291906200026c565b50620000ea6380ac58cd60e01b6200016360201b60201c565b62000102635b5e139f60e01b6200016360201b60201c565b6200011a63780e9d6360e01b6200016360201b60201c565b505033600f60006101000a81548173ffffffffffffffffffffffffffffffffffffffff021916908373ffffffffffffffffffffffffffffffffffffffff16021790555062000322565b63ffffffff60e01b817bffffffffffffffffffffffffffffffffffffffffffffffffffffffff1916141562000200576040517f08c379a000000000000000000000000000000000000000000000000000000000815260040180806020018281038252601c8152602001807f4552433136353a20696e76616c696420696e746572666163652069640000000081525060200191505060405180910390fd5b6001600080837bffffffffffffffffffffffffffffffffffffffffffffffffffffffff19167bffffffffffffffffffffffffffffffffffffffffffffffffffffffff1916815260200190815260200160002060006101000a81548160ff02191690831515021790555050565b828054600181600116156101000203166002900490600052602060002090601f016020900481019282620002a45760008555620002f0565b82601f10620002bf57805160ff1916838001178555620002f0565b82800160010185558215620002f0579182015b82811115620002ef578251825591602001919060010190620002d2565b5b509050620002ff919062000303565b5090565b5b808211156200031e57600081600090555060010162000304565b5090565b61432680620003326000396000f3fe6080604052600436106101d85760003560e01c80636352211e11610102578063b88d4fde11610095578063df6a37aa11610064578063df6a37aa14610df9578063e985e9c514610e58578063ec9b6db914610edf578063ef108af714610f1a576101d8565b8063b88d4fde14610ae1578063c1722d2b14610bf3578063c87b56dd14610c2b578063db42ef3014610cdf576101d8565b806395d89b41116100d157806395d89b41146108f0578063998dd3ca146109805780639aafc6c914610a49578063a22cb46514610a84576101d8565b80636352211e146107685780636c0360eb146107cd5780636d4fdc511461085d57806370a082311461088b576101d8565b8063229fbb561161017a57806342842e0e1161014957806342842e0e14610608578063476fd474146106835780634f6ccce7146106d45780635e6bab6814610723576101d8565b8063229fbb561461048957806323b872dd146104f057806326b7aeea1461056b5780632f745c5914610599576101d8565b8063081812fc116101b6578063081812fc14610322578063095ea7b3146103875780631200617f146103e257806318160ddd1461045e576101d8565b80630121683f146101dd57806301ffc9a71461022257806306fdde0314610292575b600080fd5b3480156101e957600080fd5b506102206004803603604081101561020057600080fd5b810190808035906020019092919080359060200190929190505050610f55565b005b34801561022e57600080fd5b5061027a6004803603602081101561024557600080fd5b8101908080357bffffffffffffffffffffffffffffffffffffffffffffffffffffffff191690602001909291905050506110bf565b60405180821515815260200191505060405180910390f35b34801561029e57600080fd5b506102a7611126565b6040518080602001828103825283818151815260200191508051906020019080838360005b838110156102e75780820151818401526020810190506102cc565b50505050905090810190601f1680156103145780820380516001836020036101000a031916815260200191505b509250505060405180910390f35b34801561032e57600080fd5b5061035b6004803603602081101561034557600080fd5b81019080803590602001909291905050506111c8565b604051808273ffffffffffffffffffffffffffffffffffffffff16815260200191505060405180910390f35b34801561039357600080fd5b506103e0600480360360408110156103aa57600080fd5b81019080803573ffffffffffffffffffffffffffffffffffffffff16906020019092919080359060200190929190505050611263565b005b3480156103ee57600080fd5b5061041b6004803603602081101561040557600080fd5b81019080803590602001909291905050506113a7565b6040518085815260200184815260200183151581526020018273ffffffffffffffffffffffffffffffffffffffff16815260200194505050505060405180910390f35b34801561046a57600080fd5b50610473611404565b6040518082815260200191505060405180910390f35b34801561049557600080fd5b506104d8600480360360208110156104ac57600080fd5b81019080803573ffffffffffffffffffffffffffffffffffffffff169060200190929190505050611415565b60405180821515815260200191505060405180910390f35b3480156104fc57600080fd5b506105696004803603606081101561051357600080fd5b81019080803573ffffffffffffffffffffffffffffffffffffffff169060200190929190803573ffffffffffffffffffffffffffffffffffffffff16906020019092919080359060200190929190505050611435565b005b6105976004803603602081101561058157600080fd5b81019080803590602001909291905050506114ab565b005b3480156105a557600080fd5b506105f2600480360360408110156105bc57600080fd5b81019080803573ffffffffffffffffffffffffffffffffffffffff169060200190929190803590602001909291905050506116ea565b6040518082815260200191505060405180910390f35b34801561061457600080fd5b506106816004803603606081101561062b57600080fd5b81019080803573ffffffffffffffffffffffffffffffffffffffff169060200190929190803573ffffffffffffffffffffffffffffffffffffffff16906020019092919080359060200190929190505050611745565b005b34801561068f57600080fd5b506106d2600480360360208110156106a657600080fd5b81019080803573ffffffffffffffffffffffffffffffffffffffff169060200190929190505050611765565b005b3480156106e057600080fd5b5061070d600480360360208110156106f757600080fd5b810190808035906020019092919050505061181a565b6040518082815260200191505060405180910390f35b34801561072f57600080fd5b506107666004803603604081101561074657600080fd5b81019080803590602001909291908035906020019092919050505061183d565b005b34801561077457600080fd5b506107a16004803603602081101561078b57600080fd5b8101908080359060200190929190505050611a92565b604051808273ffffffffffffffffffffffffffffffffffffffff16815260200191505060405180910390f35b3480156107d957600080fd5b506107e2611ac9565b6040518080602001828103825283818151815260200191508051906020019080838360005b83811015610822578082015181840152602081019050610807565b50505050905090810190601f16801561084f5780820380516001836020036101000a031916815260200191505b509250505060405180910390f35b6108896004803603602081101561087357600080fd5b8101908080359060200190929190505050611b6b565b005b34801561089757600080fd5b506108da600480360360208110156108ae57600080fd5b81019080803573ffffffffffffffffffffffffffffffffffffffff169060200190929190505050611c6c565b6040518082815260200191505060405180910390f35b3480156108fc57600080fd5b50610905611d41565b6040518080602001828103825283818151815260200191508051906020019080838360005b8381101561094557808201518184015260208101905061092a565b50505050905090810190601f1680156109725780820380516001836020036101000a031916815260200191505b509250505060405180910390f35b34801561098c57600080fd5b506109b9600480360360208110156109a357600080fd5b8101908080359060200190929190505050611de3565b6040518080602001858152602001848152602001838152602001828103825286818151815260200191508051906020019080838360005b83811015610a0b5780820151818401526020810190506109f0565b50505050905090810190601f168015610a385780820380516001836020036101000a031916815260200191505b509550505050505060405180910390f35b348015610a5557600080fd5b50610a8260048036036020811015610a6c57600080fd5b8101908080359060200190929190505050611eab565b005b348015610a9057600080fd5b50610adf60048036036040811015610aa757600080fd5b81019080803573ffffffffffffffffffffffffffffffffffffffff169060200190929190803515159060200190929190505050611fe9565b005b348015610aed57600080fd5b50610bf160048036036080811015610b0457600080fd5b81019080803573ffffffffffffffffffffffffffffffffffffffff169060200190929190803573ffffffffffffffffffffffffffffffffffffffff1690602001909291908035906020019092919080359060200190640100000000811115610b6b57600080fd5b820183602082011115610b7d57600080fd5b80359060200191846001830284011164010000000083111715610b9f57600080fd5b91908080601f016020809104026020016040519081016040528093929190818152602001838380828437600081840152601f19601f82011690508083019250505050505050919291929050505061219f565b005b610c2960048036036040811015610c0957600080fd5b810190808035906020019092919080359060200190929190505050612217565b005b348015610c3757600080fd5b50610c6460048036036020811015610c4e57600080fd5b81019080803590602001909291905050506123ef565b6040518080602001828103825283818151815260200191508051906020019080838360005b83811015610ca4578082015181840152602081019050610c89565b50505050905090810190601f168015610cd15780820380516001836020036101000a031916815260200191505b509250505060405180910390f35b348015610ceb57600080fd5b50610de3600480360360a0811015610d0257600080fd5b81019080803573ffffffffffffffffffffffffffffffffffffffff16906020019092919080359060200190640100000000811115610d3f57600080fd5b820183602082011115610d5157600080fd5b80359060200191846001830284011164010000000083111715610d7357600080fd5b91908080601f016020809104026020016040519081016040528093929190818152602001838380828437600081840152601f19601f8201169050808301925050505050505091929192908035906020019092919080359060200190929190803590602001909291905050506126c0565b6040518082815260200191505060405180910390f35b348015610e0557600080fd5b50610e3260048036036020811015610e1c57600080fd5b81019080803590602001909291905050506127d3565b604051808481526020018381526020018215158152602001935050505060405180910390f35b348015610e6457600080fd5b50610ec760048036036040811015610e7b57600080fd5b81019080803573ffffffffffffffffffffffffffffffffffffffff169060200190929190803573ffffffffffffffffffffffffffffffffffffffff16906020019092919050505061280a565b60405180821515815260200191505060405180910390f35b348015610eeb57600080fd5b50610f1860048036036020811015610f0257600080fd5b810190808035906020019092919050505061289e565b005b348015610f2657600080fd5b50610f5360048036036020811015610f3d57600080fd5b8101908080359060200190929190505050612940565b005b600b60003373ffffffffffffffffffffffffffffffffffffffff1673ffffffffffffffffffffffffffffffffffffffff16815260200190815260200160002060009054906101000a900460ff16610fab57600080fd5b610fb481611a92565b73ffffffffffffffffffffffffffffffffffffffff163373ffffffffffffffffffffffffffffffffffffffff1614610feb57600080fd5b60405180608001604052808381526020016202a300420181526020016001151581526020013373ffffffffffffffffffffffffffffffffffffffff16815250600c6000838152602001908152602001600020600082015181600001556020820151816001015560408201518160020160006101000a81548160ff02191690831515021790555060608201518160020160016101000a81548173ffffffffffffffffffffffffffffffffffffffff021916908373ffffffffffffffffffffffffffffffffffffffff1602179055509050505050565b6000806000837bffffffffffffffffffffffffffffffffffffffffffffffffffffffff19167bffffffffffffffffffffffffffffffffffffffffffffffffffffffff1916815260200190815260200160002060009054906101000a900460ff169050919050565b606060068054600181600116156101000203166002900480601f0160208091040260200160405190810160405280929190818152602001828054600181600116156101000203166002900480156111be5780601f10611193576101008083540402835291602001916111be565b820191906000526020600020905b8154815290600101906020018083116111a157829003601f168201915b5050505050905090565b60006111d3826129d5565b611228576040517f08c379a000000000000000000000000000000000000000000000000000000000815260040180806020018281038252602c8152602001806141ef602c913960400191505060405180910390fd5b6004600083815260200190815260200160002060009054906101000a900473ffffffffffffffffffffffffffffffffffffffff169050919050565b600061126e82611a92565b90508073ffffffffffffffffffffffffffffffffffffffff168373ffffffffffffffffffffffffffffffffffffffff1614156112f5576040517f08c379a000000000000000000000000000000000000000000000000000000000815260040180806020018281038252602181526020018061429f6021913960400191505060405180910390fd5b8073ffffffffffffffffffffffffffffffffffffffff166113146129f2565b73ffffffffffffffffffffffffffffffffffffffff16148061134357506113428161133d6129f2565b61280a565b5b611398576040517f08c379a00000000000000000000000000000000000000000000000000000000081526004018080602001828103825260388152602001806141426038913960400191505060405180910390fd5b6113a283836129fa565b505050565b600c6020528060005260406000206000915090508060000154908060010154908060020160009054906101000a900460ff16908060020160019054906101000a900473ffffffffffffffffffffffffffffffffffffffff16905084565b60006114106002612ab3565b905090565b600b6020528060005260406000206000915054906101000a900460ff1681565b6114466114406129f2565b82612ac8565b61149b576040517f08c379a00000000000000000000000000000000000000000000000000000000081526004018080602001828103825260318152602001806142c06031913960400191505060405180910390fd5b6114a6838383612bbc565b505050565b600b60003373ffffffffffffffffffffffffffffffffffffffff1673ffffffffffffffffffffffffffffffffffffffff16815260200190815260200160002060009054906101000a900460ff1661150157600080fd5b42600c6000838152602001908152602001600020600101541161152357600080fd5b34600c6000838152602001908152602001600020600001541061154557600080fd5b600c600082815260200190815260200160002060020160009054906101000a900460ff1661157257600080fd5b61157b81611a92565b73ffffffffffffffffffffffffffffffffffffffff16600c600083815260200190815260200160002060020160019054906101000a900473ffffffffffffffffffffffffffffffffffffffff1673ffffffffffffffffffffffffffffffffffffffff161461167757600c600082815260200190815260200160002060020160019054906101000a900473ffffffffffffffffffffffffffffffffffffffff1673ffffffffffffffffffffffffffffffffffffffff166108fc600c6000848152602001908152602001600020600001549081150290604051600060405180830381858888f19350505050158015611675573d6000803e3d6000fd5b505b34600c60008381526020019081526020016000206000018190555033600c600083815260200190815260200160002060020160016101000a81548173ffffffffffffffffffffffffffffffffffffffff021916908373ffffffffffffffffffffffffffffffffffffffff16021790555050565b600061173d82600160008673ffffffffffffffffffffffffffffffffffffffff1673ffffffffffffffffffffffffffffffffffffffff168152602001908152602001600020612dff90919063ffffffff16565b905092915050565b6117608383836040518060200160405280600081525061219f565b505050565b600f60009054906101000a900473ffffffffffffffffffffffffffffffffffffffff1673ffffffffffffffffffffffffffffffffffffffff163373ffffffffffffffffffffffffffffffffffffffff16146117bf57600080fd5b6001600b60008373ffffffffffffffffffffffffffffffffffffffff1673ffffffffffffffffffffffffffffffffffffffff16815260200190815260200160002060006101000a81548160ff02191690831515021790555050565b600080611831836002612e1990919063ffffffff16565b50905080915050919050565b600b60003373ffffffffffffffffffffffffffffffffffffffff1673ffffffffffffffffffffffffffffffffffffffff16815260200190815260200160002060009054906101000a900460ff1661189357600080fd5b61189c82611a92565b73ffffffffffffffffffffffffffffffffffffffff163373ffffffffffffffffffffffffffffffffffffffff1614801561190957506118da81611a92565b73ffffffffffffffffffffffffffffffffffffffff163373ffffffffffffffffffffffffffffffffffffffff16145b61191257600080fd5b6000600e60008381526020019081526020016000206000018054600181600116156101000203166002900480601f0160208091040260200160405190810160405280929190818152602001828054600181600116156101000203166002900480156119be5780601f10611993576101008083540402835291602001916119be565b820191906000526020600020905b8154815290600101906020018083116119a157829003601f168201915b5050505050905060006002600e600085815260200190815260200160002060010154600e60008781526020019081526020016000206001015401816119ff57fe5b04905060006002600e600086815260200190815260200160002060020154600e6000888152602001908152602001600020600201540181611a3c57fe5b04905060006002600e600087815260200190815260200160002060030154600e6000898152602001908152602001600020600301540181611a7957fe5b049050611a8933858585856126c0565b50505050505050565b6000611ac2826040518060600160405280602981526020016141a4602991396002612e459092919063ffffffff16565b9050919050565b606060098054600181600116156101000203166002900480601f016020809104026020016040519081016040528092919081815260200182805460018160011615610100020316600290048015611b615780601f10611b3657610100808354040283529160200191611b61565b820191906000526020600020905b815481529060010190602001808311611b4457829003601f168201915b5050505050905090565b600b60003373ffffffffffffffffffffffffffffffffffffffff1673ffffffffffffffffffffffffffffffffffffffff16815260200190815260200160002060009054906101000a900460ff16611bc157600080fd5b3373ffffffffffffffffffffffffffffffffffffffff16611be182611a92565b73ffffffffffffffffffffffffffffffffffffffff1614611c0157600080fd5b604051806060016040528082815260200134815260200160011515815250600d6000838152602001908152602001600020600082015181600001556020820151816001015560408201518160020160006101000a81548160ff02191690831515021790555090505050565b60008073ffffffffffffffffffffffffffffffffffffffff168273ffffffffffffffffffffffffffffffffffffffff161415611cf3576040517f08c379a000000000000000000000000000000000000000000000000000000000815260040180806020018281038252602a81526020018061417a602a913960400191505060405180910390fd5b611d3a600160008473ffffffffffffffffffffffffffffffffffffffff1673ffffffffffffffffffffffffffffffffffffffff168152602001908152602001600020612e64565b9050919050565b606060078054600181600116156101000203166002900480601f016020809104026020016040519081016040528092919081815260200182805460018160011615610100020316600290048015611dd95780601f10611dae57610100808354040283529160200191611dd9565b820191906000526020600020905b815481529060010190602001808311611dbc57829003601f168201915b5050505050905090565b600e602052806000526040600020600091509050806000018054600181600116156101000203166002900480601f016020809104026020016040519081016040528092919081815260200182805460018160011615610100020316600290048015611e8f5780601f10611e6457610100808354040283529160200191611e8f565b820191906000526020600020905b815481529060010190602001808311611e7257829003601f168201915b5050505050908060010154908060020154908060030154905084565b600b60003373ffffffffffffffffffffffffffffffffffffffff1673ffffffffffffffffffffffffffffffffffffffff16815260200190815260200160002060009054906101000a900460ff16611f0157600080fd5b600c600082815260200190815260200160002060020160019054906101000a900473ffffffffffffffffffffffffffffffffffffffff1673ffffffffffffffffffffffffffffffffffffffff163373ffffffffffffffffffffffffffffffffffffffff1614611f6f57600080fd5b600c600082815260200190815260200160002060020160009054906101000a900460ff1615611f9d57600080fd5b611fe6611fa982611a92565b600c600084815260200190815260200160002060020160019054906101000a900473ffffffffffffffffffffffffffffffffffffffff1683611435565b50565b611ff16129f2565b73ffffffffffffffffffffffffffffffffffffffff168273ffffffffffffffffffffffffffffffffffffffff161415612092576040517f08c379a00000000000000000000000000000000000000000000000000000000081526004018080602001828103825260198152602001807f4552433732313a20617070726f766520746f2063616c6c65720000000000000081525060200191505060405180910390fd5b806005600061209f6129f2565b73ffffffffffffffffffffffffffffffffffffffff1673ffffffffffffffffffffffffffffffffffffffff16815260200190815260200160002060008473ffffffffffffffffffffffffffffffffffffffff1673ffffffffffffffffffffffffffffffffffffffff16815260200190815260200160002060006101000a81548160ff0219169083151502179055508173ffffffffffffffffffffffffffffffffffffffff1661214c6129f2565b73ffffffffffffffffffffffffffffffffffffffff167f17307eab39ab6107e8899845ad3d59bd9653f200f220920489ca2b5937696c318360405180821515815260200191505060405180910390a35050565b6121b06121aa6129f2565b83612ac8565b612205576040517f08c379a00000000000000000000000000000000000000000000000000000000081526004018080602001828103825260318152602001806142c06031913960400191505060405180910390fd5b61221184848484612e79565b50505050565b600b60003373ffffffffffffffffffffffffffffffffffffffff1673ffffffffffffffffffffffffffffffffffffffff16815260200190815260200160002060009054906101000a900460ff1661226d57600080fd5b600d600083815260200190815260200160002060010154341461228f57600080fd5b81600d60008481526020019081526020016000206000018190555060006122e3600e600084815260200190815260200160002060030154600e60008681526020019081526020016000206003015401612eeb565b9050600e60008481526020019081526020016000206003015481116123785761230b83611a92565b73ffffffffffffffffffffffffffffffffffffffff166108fc6002600d600087815260200190815260200160002060010154029081150290604051600060405180830381858888f19350505050158015612369573d6000803e3d6000fd5b506123738361289e565b6123ea565b61238182611a92565b73ffffffffffffffffffffffffffffffffffffffff166108fc6002600d600087815260200190815260200160002060010154029081150290604051600060405180830381858888f193505050501580156123df573d6000803e3d6000fd5b506123e98261289e565b5b505050565b60606123fa826129d5565b61244f576040517f08c379a000000000000000000000000000000000000000000000000000000000815260040180806020018281038252602f815260200180614270602f913960400191505060405180910390fd5b6000600860008481526020019081526020016000208054600181600116156101000203166002900480601f0160208091040260200160405190810160405280929190818152602001828054600181600116156101000203166002900480156124f85780601f106124cd576101008083540402835291602001916124f8565b820191906000526020600020905b8154815290600101906020018083116124db57829003601f168201915b505050505090506000612509611ac9565b905060008151141561251f5781925050506126bb565b6000825111156125f05780826040516020018083805190602001908083835b60208310612561578051825260208201915060208101905060208303925061253e565b6001836020036101000a03801982511681845116808217855250505050505090500182805190602001908083835b602083106125b2578051825260208201915060208101905060208303925061258f565b6001836020036101000a03801982511681845116808217855250505050505090500192505050604051602081830303815290604052925050506126bb565b806125fa85612f64565b6040516020018083805190602001908083835b60208310612630578051825260208201915060208101905060208303925061260d565b6001836020036101000a03801982511681845116808217855250505050505090500182805190602001908083835b60208310612681578051825260208201915060208101905060208303925061265e565b6001836020036101000a03801982511681845116808217855250505050505090500192505050604051602081830303815290604052925050505b919050565b6000600b60003373ffffffffffffffffffffffffffffffffffffffff1673ffffffffffffffffffffffffffffffffffffffff16815260200190815260200160002060009054906101000a900460ff1661271857600080fd5b600a600081548092919060010191905055506000600a54905061273b87826130ab565b604051806080016040528087815260200186815260200185815260200184815250600e6000838152602001908152602001600020600082015181600001908051906020019061278b929190613f84565b506020820151816001015560408201518160020155606082015181600301559050506127c6816040518060200160405280600081525061329f565b8091505095945050505050565b600d6020528060005260406000206000915090508060000154908060010154908060020160009054906101000a900460ff16905083565b6000600560008473ffffffffffffffffffffffffffffffffffffffff1673ffffffffffffffffffffffffffffffffffffffff16815260200190815260200160002060008373ffffffffffffffffffffffffffffffffffffffff1673ffffffffffffffffffffffffffffffffffffffff16815260200190815260200160002060009054906101000a900460ff16905092915050565b600b60003373ffffffffffffffffffffffffffffffffffffffff1673ffffffffffffffffffffffffffffffffffffffff16815260200190815260200160002060009054906101000a900460ff166128f457600080fd5b6128fd81611a92565b73ffffffffffffffffffffffffffffffffffffffff163373ffffffffffffffffffffffffffffffffffffffff161461293457600080fd5b61293d81613329565b50565b612980600c600083815260200190815260200160002060020160019054906101000a900473ffffffffffffffffffffffffffffffffffffffff1682611263565b42600c60008381526020019081526020016000206001015411156129a357600080fd5b6000600c600083815260200190815260200160002060020160006101000a81548160ff02191690831515021790555050565b60006129eb82600261346390919063ffffffff16565b9050919050565b600033905090565b816004600083815260200190815260200160002060006101000a81548173ffffffffffffffffffffffffffffffffffffffff021916908373ffffffffffffffffffffffffffffffffffffffff160217905550808273ffffffffffffffffffffffffffffffffffffffff16612a6d83611a92565b73ffffffffffffffffffffffffffffffffffffffff167f8c5be1e5ebec7d5bd14f71427d1e84f3dd0314c0f7b2291e5b200ac8c7c3b92560405160405180910390a45050565b6000612ac18260000161347d565b9050919050565b6000612ad3826129d5565b612b28576040517f08c379a000000000000000000000000000000000000000000000000000000000815260040180806020018281038252602c815260200180614116602c913960400191505060405180910390fd5b6000612b3383611a92565b90508073ffffffffffffffffffffffffffffffffffffffff168473ffffffffffffffffffffffffffffffffffffffff161480612ba257508373ffffffffffffffffffffffffffffffffffffffff16612b8a846111c8565b73ffffffffffffffffffffffffffffffffffffffff16145b80612bb35750612bb2818561280a565b5b91505092915050565b8273ffffffffffffffffffffffffffffffffffffffff16612bdc82611a92565b73ffffffffffffffffffffffffffffffffffffffff1614612c48576040517f08c379a00000000000000000000000000000000000000000000000000000000081526004018080602001828103825260298152602001806142476029913960400191505060405180910390fd5b600073ffffffffffffffffffffffffffffffffffffffff168273ffffffffffffffffffffffffffffffffffffffff161415612cce576040517f08c379a00000000000000000000000000000000000000000000000000000000081526004018080602001828103825260248152602001806140cc6024913960400191505060405180910390fd5b612cd983838361348e565b612ce46000826129fa565b612d3581600160008673ffffffffffffffffffffffffffffffffffffffff1673ffffffffffffffffffffffffffffffffffffffff16815260200190815260200160002061349390919063ffffffff16565b50612d8781600160008573ffffffffffffffffffffffffffffffffffffffff1673ffffffffffffffffffffffffffffffffffffffff1681526020019081526020016000206134ad90919063ffffffff16565b50612d9e818360026134c79092919063ffffffff16565b50808273ffffffffffffffffffffffffffffffffffffffff168473ffffffffffffffffffffffffffffffffffffffff167fddf252ad1be2c89b69c2b068fc378daa952ba7f163c4a11628f55a4df523b3ef60405160405180910390a4505050565b6000612e0e83600001836134fc565b60001c905092915050565b600080600080612e2c866000018661357f565b915091508160001c8160001c9350935050509250929050565b6000612e58846000018460001b84613618565b60001c90509392505050565b6000612e728260000161370e565b9050919050565b612e84848484612bbc565b612e908484848461371f565b612ee5576040517f08c379a000000000000000000000000000000000000000000000000000000000815260040180806020018281038252603281526020018061409a6032913960400191505060405180910390fd5b50505050565b6000601060008154809291906001019190505550814233601054604051602001808481526020018373ffffffffffffffffffffffffffffffffffffffff1660601b815260140182815260200193505050506040516020818303038152906040528051906020012060001c81612f5c57fe5b069050919050565b60606000821415612fac576040518060400160405280600181526020017f300000000000000000000000000000000000000000000000000000000000000081525090506130a6565b600082905060005b60008214612fd6578080600101915050600a8281612fce57fe5b049150612fb4565b60008167ffffffffffffffff81118015612fef57600080fd5b506040519080825280601f01601f1916602001820160405280156130225781602001600182028036833780820191505090505b50905060006001830390508593505b6000841461309e57600a848161304357fe5b0660300160f81b8282806001900393508151811061305d57fe5b60200101907effffffffffffffffffffffffffffffffffffffffffffffffffffffffffffff1916908160001a905350600a848161309657fe5b049350613031565b819450505050505b919050565b600073ffffffffffffffffffffffffffffffffffffffff168273ffffffffffffffffffffffffffffffffffffffff16141561314e576040517f08c379a00000000000000000000000000000000000000000000000000000000081526004018080602001828103825260208152602001807f4552433732313a206d696e7420746f20746865207a65726f206164647265737381525060200191505060405180910390fd5b613157816129d5565b156131ca576040517f08c379a000000000000000000000000000000000000000000000000000000000815260040180806020018281038252601c8152602001807f4552433732313a20746f6b656e20616c7265616479206d696e7465640000000081525060200191505060405180910390fd5b6131d66000838361348e565b61322781600160008573ffffffffffffffffffffffffffffffffffffffff1673ffffffffffffffffffffffffffffffffffffffff1681526020019081526020016000206134ad90919063ffffffff16565b5061323e818360026134c79092919063ffffffff16565b50808273ffffffffffffffffffffffffffffffffffffffff16600073ffffffffffffffffffffffffffffffffffffffff167fddf252ad1be2c89b69c2b068fc378daa952ba7f163c4a11628f55a4df523b3ef60405160405180910390a45050565b6132a8826129d5565b6132fd576040517f08c379a000000000000000000000000000000000000000000000000000000000815260040180806020018281038252602c81526020018061421b602c913960400191505060405180910390fd5b80600860008481526020019081526020016000209080519060200190613324929190613f84565b505050565b600061333482611a92565b90506133428160008461348e565b61334d6000836129fa565b6000600860008481526020019081526020016000208054600181600116156101000203166002900490501461339c5760086000838152602001908152602001600020600061339b9190614012565b5b6133ed82600160008473ffffffffffffffffffffffffffffffffffffffff1673ffffffffffffffffffffffffffffffffffffffff16815260200190815260200160002061349390919063ffffffff16565b5061340282600261393890919063ffffffff16565b5081600073ffffffffffffffffffffffffffffffffffffffff168273ffffffffffffffffffffffffffffffffffffffff167fddf252ad1be2c89b69c2b068fc378daa952ba7f163c4a11628f55a4df523b3ef60405160405180910390a45050565b6000613475836000018360001b613952565b905092915050565b600081600001805490509050919050565b505050565b60006134a5836000018360001b613975565b905092915050565b60006134bf836000018360001b613a5d565b905092915050565b60006134f3846000018460001b8473ffffffffffffffffffffffffffffffffffffffff1660001b613acd565b90509392505050565b60008183600001805490501161355d576040517f08c379a00000000000000000000000000000000000000000000000000000000081526004018080602001828103825260228152602001806140786022913960400191505060405180910390fd5b82600001828154811061356c57fe5b9060005260206000200154905092915050565b600080828460000180549050116135e1576040517f08c379a00000000000000000000000000000000000000000000000000000000081526004018080602001828103825260228152602001806141cd6022913960400191505060405180910390fd5b60008460000184815481106135f257fe5b906000526020600020906002020190508060000154816001015492509250509250929050565b600080846001016000858152602001908152602001600020549050600081141583906136df576040517f08c379a00000000000000000000000000000000000000000000000000000000081526004018080602001828103825283818151815260200191508051906020019080838360005b838110156136a4578082015181840152602081019050613689565b50505050905090810190601f1680156136d15780820380516001836020036101000a031916815260200191505b509250505060405180910390fd5b508460000160018203815481106136f257fe5b9060005260206000209060020201600101549150509392505050565b600081600001805490509050919050565b60006137408473ffffffffffffffffffffffffffffffffffffffff16613ba9565b61374d5760019050613930565b60006138b763150b7a0260e01b6137626129f2565b888787604051602401808573ffffffffffffffffffffffffffffffffffffffff1681526020018473ffffffffffffffffffffffffffffffffffffffff16815260200183815260200180602001828103825283818151815260200191508051906020019080838360005b838110156137e65780820151818401526020810190506137cb565b50505050905090810190601f1680156138135780820380516001836020036101000a031916815260200191505b5095505050505050604051602081830303815290604052907bffffffffffffffffffffffffffffffffffffffffffffffffffffffff19166020820180517bffffffffffffffffffffffffffffffffffffffffffffffffffffffff838183161783525050505060405180606001604052806032815260200161409a603291398773ffffffffffffffffffffffffffffffffffffffff16613bbc9092919063ffffffff16565b905060008180602001905160208110156138d057600080fd5b8101908080519060200190929190505050905063150b7a0260e01b7bffffffffffffffffffffffffffffffffffffffffffffffffffffffff1916817bffffffffffffffffffffffffffffffffffffffffffffffffffffffff191614925050505b949350505050565b600061394a836000018360001b613bd4565b905092915050565b600080836001016000848152602001908152602001600020541415905092915050565b60008083600101600084815260200190815260200160002054905060008114613a5157600060018203905060006001866000018054905003905060008660000182815481106139c057fe5b90600052602060002001549050808760000184815481106139dd57fe5b9060005260206000200181905550600183018760010160008381526020019081526020016000208190555086600001805480613a1557fe5b60019003818190600052602060002001600090559055866001016000878152602001908152602001600020600090556001945050505050613a57565b60009150505b92915050565b6000613a698383613ced565b613ac2578260000182908060018154018082558091505060019003906000526020600020016000909190919091505582600001805490508360010160008481526020019081526020016000208190555060019050613ac7565b600090505b92915050565b6000808460010160008581526020019081526020016000205490506000811415613b7457846000016040518060400160405280868152602001858152509080600181540180825580915050600190039060005260206000209060020201600090919091909150600082015181600001556020820151816001015550508460000180549050856001016000868152602001908152602001600020819055506001915050613ba2565b82856000016001830381548110613b8757fe5b90600052602060002090600202016001018190555060009150505b9392505050565b600080823b905060008111915050919050565b6060613bcb8484600085613d10565b90509392505050565b60008083600101600084815260200190815260200160002054905060008114613ce15760006001820390506000600186600001805490500390506000866000018281548110613c1f57fe5b9060005260206000209060020201905080876000018481548110613c3f57fe5b9060005260206000209060020201600082015481600001556001820154816001015590505060018301876001016000836000015481526020019081526020016000208190555086600001805480613c9257fe5b6001900381819060005260206000209060020201600080820160009055600182016000905550509055866001016000878152602001908152602001600020600090556001945050505050613ce7565b60009150505b92915050565b600080836001016000848152602001908152602001600020541415905092915050565b606082471015613d6b576040517f08c379a00000000000000000000000000000000000000000000000000000000081526004018080602001828103825260268152602001806140f06026913960400191505060405180910390fd5b613d7485613ba9565b613de6576040517f08c379a000000000000000000000000000000000000000000000000000000000815260040180806020018281038252601d8152602001807f416464726573733a2063616c6c20746f206e6f6e2d636f6e747261637400000081525060200191505060405180910390fd5b6000808673ffffffffffffffffffffffffffffffffffffffff1685876040518082805190602001908083835b60208310613e355780518252602082019150602081019050602083039250613e12565b6001836020036101000a03801982511681845116808217855250505050505090500191505060006040518083038185875af1925050503d8060008114613e97576040519150601f19603f3d011682016040523d82523d6000602084013e613e9c565b606091505b5091509150613eac828286613eb8565b92505050949350505050565b60608315613ec857829050613f7d565b600083511115613edb5782518084602001fd5b816040517f08c379a00000000000000000000000000000000000000000000000000000000081526004018080602001828103825283818151815260200191508051906020019080838360005b83811015613f42578082015181840152602081019050613f27565b50505050905090810190601f168015613f6f5780820380516001836020036101000a031916815260200191505b509250505060405180910390fd5b9392505050565b828054600181600116156101000203166002900490600052602060002090601f016020900481019282613fba5760008555614001565b82601f10613fd357805160ff1916838001178555614001565b82800160010185558215614001579182015b82811115614000578251825591602001919060010190613fe5565b5b50905061400e919061405a565b5090565b50805460018160011615610100020316600290046000825580601f106140385750614057565b601f016020900490600052602060002090810190614056919061405a565b5b50565b5b8082111561407357600081600090555060010161405b565b509056fe456e756d657261626c655365743a20696e646578206f7574206f6620626f756e64734552433732313a207472616e7366657220746f206e6f6e20455243373231526563656976657220696d706c656d656e7465724552433732313a207472616e7366657220746f20746865207a65726f2061646472657373416464726573733a20696e73756666696369656e742062616c616e636520666f722063616c6c4552433732313a206f70657261746f7220717565727920666f72206e6f6e6578697374656e7420746f6b656e4552433732313a20617070726f76652063616c6c6572206973206e6f74206f776e6572206e6f7220617070726f76656420666f7220616c6c4552433732313a2062616c616e636520717565727920666f7220746865207a65726f20616464726573734552433732313a206f776e657220717565727920666f72206e6f6e6578697374656e7420746f6b656e456e756d657261626c654d61703a20696e646578206f7574206f6620626f756e64734552433732313a20617070726f76656420717565727920666f72206e6f6e6578697374656e7420746f6b656e4552433732314d657461646174613a2055524920736574206f66206e6f6e6578697374656e7420746f6b656e4552433732313a207472616e73666572206f6620746f6b656e2074686174206973206e6f74206f776e4552433732314d657461646174613a2055524920717565727920666f72206e6f6e6578697374656e7420746f6b656e4552433732313a20617070726f76616c20746f2063757272656e74206f776e65724552433732313a207472616e736665722063616c6c6572206973206e6f74206f776e6572206e6f7220617070726f766564a2646970667358221220e74e83a0a41209d3cc4bafb8206f5029bb95b010a9b57afe8ad728b12b55f10d64736f6c63430007060033",
  "immutableReferences": {},
  "source": "pragma solidity >=0.6.0 <0.8.0;\n\nimport \"@openzeppelin/contracts/token/ERC721/ERC721.sol\";\n\ncontract Francistan is ERC721 {\n    uint256 private _tokenIds=0;\n    mapping (address => bool) public breeders;\n    mapping (uint256 => Auction) public auction;\n    mapping (uint256 => Fight) public fight;\n    mapping (uint256 => Animal) public animals;\n    address admin;\n    uint randNonce = 0; \n\n    struct Fight{\n        uint256 tokenId;\n        uint256 stake;\n        bool isActive;\n    }\n    struct Auction{\n        uint256 price;\n        uint256 time;\n        bool isActive;\n        address payable bidder;\n    }\n    struct Animal{\n        string feathers;\n        uint256 weight;\n        uint256 size;\n        uint256 aggressivity;\n    }\n    constructor() ERC721(\"Francistan\", \"Coq\") public {\n        admin = msg.sender;\n    }\n\n    modifier isBreeder(){\n        require(breeders[msg.sender]);\n        _;\n    }\n\n    function registerBreeder(address breeder) public {\n        require(msg.sender==admin);\n        breeders[breeder]=true;\n    }\n    \n    function declareAnimal(address breeder, string memory feathers, uint256 weight,uint256 size,uint256 aggressivity) isBreeder public returns(uint256){\n        _tokenIds++;\n        uint256 newItemId = _tokenIds;\n        _mint(breeder, newItemId);\n        animals[newItemId]=Animal(feathers,weight,size,aggressivity);\n        _setTokenURI(newItemId, \"\");\n        return newItemId;\n    }\n\n    function deadAnimal(uint256 tokenId) public isBreeder {\n        require(msg.sender==ownerOf(tokenId));\n        _burn(tokenId);\n    }\n\n    function breedAnimal(uint256 tokenId1,uint256 tokenId2) public isBreeder{\n        require(msg.sender==ownerOf(tokenId1) && msg.sender==ownerOf(tokenId2));\n        string memory feathersChild = animals[tokenId2].feathers;\n        uint256 weightChild = (animals[tokenId1].weight+ animals[tokenId2].weight)/2;\n        uint256 sizeChild = (animals[tokenId1].size+ animals[tokenId2].size)/2;\n        uint256 aggressivityChild = (animals[tokenId1].aggressivity+ animals[tokenId2].aggressivity)/2;\n        declareAnimal(msg.sender,feathersChild , weightChild, sizeChild, aggressivityChild);\n    }\n\n    function createAuction(uint256 price, uint256 tokenId) public isBreeder{\n        require(msg.sender==ownerOf(tokenId));\n        auction[tokenId]=Auction(price,block.timestamp+60*60*24*2,true,msg.sender);\n    }\n\n    function bidOnAuction(uint256 tokenId) public payable isBreeder{\n        require(auction[tokenId].time>block.timestamp);\n        require(auction[tokenId].price<msg.value);\n        require(auction[tokenId].isActive);\n        if (auction[tokenId].bidder!= ownerOf(tokenId)){\n            auction[tokenId].bidder.transfer(auction[tokenId].price);\n        }\n        auction[tokenId].price=msg.value;\n        auction[tokenId].bidder=msg.sender;\n    }\n    function acceptAuction(uint256 tokenId) public {\n        approve(auction[tokenId].bidder,tokenId);\n        require(auction[tokenId].time<=block.timestamp);\n        auction[tokenId].isActive=false;\n    }\n    function claimAuction(uint256 tokenId) public isBreeder{\n        require(msg.sender==auction[tokenId].bidder);\n        require(!auction[tokenId].isActive);\n        transferFrom(ownerOf(tokenId),auction[tokenId].bidder,tokenId);\n    }\n\n    function proposeFight(uint256 tokenId) public payable isBreeder{\n        require(ownerOf(tokenId)==msg.sender);\n        fight[tokenId]=Fight(tokenId, msg.value, true);\n    }\n    \n    function agreeToFight(uint256 tokenId1, uint256 tokenId2) public payable isBreeder{\n        require(msg.value==fight[tokenId1].stake);\n        fight[tokenId1].tokenId=tokenId1;\n        uint256 result = animalFighting(animals[tokenId1].aggressivity+animals[tokenId2].aggressivity);\n        if (result<= animals[tokenId1].aggressivity) {\n            payable(ownerOf(tokenId1)).transfer(fight[tokenId1].stake*2);\n            deadAnimal(tokenId1);\n        }\n        else {\n            payable(ownerOf(tokenId2)).transfer(fight[tokenId1].stake*2);\n            deadAnimal(tokenId2);\n        }\n    }\n\n    function animalFighting(uint256 odd) internal returns(uint){\n        \n        randNonce++;   \n       return uint(keccak256(abi.encodePacked(block.timestamp,  \n                                              msg.sender,  \n                                              randNonce))) % odd; \n    }\n\n    function uint2str(uint _i) internal pure returns (string memory _uintAsString) {\n    if (_i == 0) {\n        return \"0\";\n    }\n    uint j = _i;\n    uint len;\n    while (j != 0) {\n        len++;\n        j /= 10;\n    }\n    bytes memory bstr = new bytes(len);\n    uint k = len - 1;\n    while (_i != 0) {\n        bstr[k--] = byte(uint8(48 + _i % 10));\n        _i /= 10;\n    }\n    return string(bstr);\n    }\n}",
  "sourcePath": "/Users/lucaslevy/la_cryptoferme/contracts/Token.sol",
  "compiler": {
    "name": "solc",
    "version": "0.7.6+commit.7338295f.Emscripten.clang"
  },
  "schemaVersion": "3.3.4",
  "updatedAt": "2021-03-19T15:33:19.695Z",
  "networkType": "ethereum",
  "devdoc": {
    "kind": "dev",
    "methods": {
      "approve(address,uint256)": {
        "details": "See {IERC721-approve}."
      },
      "balanceOf(address)": {
        "details": "See {IERC721-balanceOf}."
      },
      "baseURI()": {
        "details": "Returns the base URI set via {_setBaseURI}. This will be automatically added as a prefix in {tokenURI} to each token's URI, or to the token ID if no specific URI is set for that token ID."
      },
      "getApproved(uint256)": {
        "details": "See {IERC721-getApproved}."
      },
      "isApprovedForAll(address,address)": {
        "details": "See {IERC721-isApprovedForAll}."
      },
      "name()": {
        "details": "See {IERC721Metadata-name}."
      },
      "ownerOf(uint256)": {
        "details": "See {IERC721-ownerOf}."
      },
      "safeTransferFrom(address,address,uint256)": {
        "details": "See {IERC721-safeTransferFrom}."
      },
      "safeTransferFrom(address,address,uint256,bytes)": {
        "details": "See {IERC721-safeTransferFrom}."
      },
      "setApprovalForAll(address,bool)": {
        "details": "See {IERC721-setApprovalForAll}."
      },
      "supportsInterface(bytes4)": {
        "details": "See {IERC165-supportsInterface}. Time complexity O(1), guaranteed to always use less than 30 000 gas."
      },
      "symbol()": {
        "details": "See {IERC721Metadata-symbol}."
      },
      "tokenByIndex(uint256)": {
        "details": "See {IERC721Enumerable-tokenByIndex}."
      },
      "tokenOfOwnerByIndex(address,uint256)": {
        "details": "See {IERC721Enumerable-tokenOfOwnerByIndex}."
      },
      "tokenURI(uint256)": {
        "details": "See {IERC721Metadata-tokenURI}."
      },
      "totalSupply()": {
        "details": "See {IERC721Enumerable-totalSupply}."
      },
      "transferFrom(address,address,uint256)": {
        "details": "See {IERC721-transferFrom}."
      }
    },
    "version": 1
  },
  "userdoc": {
    "kind": "user",
    "methods": {},
    "version": 1
  }
}