{
  "contractName": "Francistan",
  "abi": [
    {
      "inputs": [],
      "stateMutability": "nonpayable",
      "type": "constructor"
    },
    {
      "anonymous": false,
      "inputs": [
        {
          "indexed": true,
          "internalType": "address",
          "name": "owner",
          "type": "address"
        },
        {
          "indexed": true,
          "internalType": "address",
          "name": "approved",
          "type": "address"
        },
        {
          "indexed": true,
          "internalType": "uint256",
          "name": "tokenId",
          "type": "uint256"
        }
      ],
      "name": "Approval",
      "type": "event"
    },
    {
      "anonymous": false,
      "inputs": [
        {
          "indexed": true,
          "internalType": "address",
          "name": "owner",
          "type": "address"
        },
        {
          "indexed": true,
          "internalType": "address",
          "name": "operator",
          "type": "address"
        },
        {
          "indexed": false,
          "internalType": "bool",
          "name": "approved",
          "type": "bool"
        }
      ],
      "name": "ApprovalForAll",
      "type": "event"
    },
    {
      "anonymous": false,
      "inputs": [
        {
          "indexed": true,
          "internalType": "address",
          "name": "from",
          "type": "address"
        },
        {
          "indexed": true,
          "internalType": "address",
          "name": "to",
          "type": "address"
        },
        {
          "indexed": true,
          "internalType": "uint256",
          "name": "tokenId",
          "type": "uint256"
        }
      ],
      "name": "Transfer",
      "type": "event"
    },
    {
      "inputs": [
        {
          "internalType": "address",
          "name": "to",
          "type": "address"
        },
        {
          "internalType": "uint256",
          "name": "tokenId",
          "type": "uint256"
        }
      ],
      "name": "approve",
      "outputs": [],
      "stateMutability": "nonpayable",
      "type": "function"
    },
    {
      "inputs": [
        {
          "internalType": "uint256",
          "name": "",
          "type": "uint256"
        }
      ],
      "name": "auction",
      "outputs": [
        {
          "internalType": "uint256",
          "name": "price",
          "type": "uint256"
        },
        {
          "internalType": "uint256",
          "name": "time",
          "type": "uint256"
        },
        {
          "internalType": "bool",
          "name": "isActive",
          "type": "bool"
        },
        {
          "internalType": "address payable",
          "name": "bidder",
          "type": "address"
        }
      ],
      "stateMutability": "view",
      "type": "function",
      "constant": true
    },
    {
      "inputs": [
        {
          "internalType": "address",
          "name": "owner",
          "type": "address"
        }
      ],
      "name": "balanceOf",
      "outputs": [
        {
          "internalType": "uint256",
          "name": "",
          "type": "uint256"
        }
      ],
      "stateMutability": "view",
      "type": "function",
      "constant": true
    },
    {
      "inputs": [],
      "name": "baseURI",
      "outputs": [
        {
          "internalType": "string",
          "name": "",
          "type": "string"
        }
      ],
      "stateMutability": "view",
      "type": "function",
      "constant": true
    },
    {
      "inputs": [
        {
          "internalType": "address",
          "name": "",
          "type": "address"
        }
      ],
      "name": "breeders",
      "outputs": [
        {
          "internalType": "bool",
          "name": "",
          "type": "bool"
        }
      ],
      "stateMutability": "view",
      "type": "function",
      "constant": true
    },
    {
      "inputs": [
        {
          "internalType": "uint256",
          "name": "",
          "type": "uint256"
        }
      ],
      "name": "fight",
      "outputs": [
        {
          "internalType": "uint256",
          "name": "tokenId",
          "type": "uint256"
        },
        {
          "internalType": "uint256",
          "name": "stake",
          "type": "uint256"
        },
        {
          "internalType": "bool",
          "name": "isActive",
          "type": "bool"
        }
      ],
      "stateMutability": "view",
      "type": "function",
      "constant": true
    },
    {
      "inputs": [
        {
          "internalType": "uint256",
          "name": "tokenId",
          "type": "uint256"
        }
      ],
      "name": "getApproved",
      "outputs": [
        {
          "internalType": "address",
          "name": "",
          "type": "address"
        }
      ],
      "stateMutability": "view",
      "type": "function",
      "constant": true
    },
    {
      "inputs": [
        {
          "internalType": "address",
          "name": "owner",
          "type": "address"
        },
        {
          "internalType": "address",
          "name": "operator",
          "type": "address"
        }
      ],
      "name": "isApprovedForAll",
      "outputs": [
        {
          "internalType": "bool",
          "name": "",
          "type": "bool"
        }
      ],
      "stateMutability": "view",
      "type": "function",
      "constant": true
    },
    {
      "inputs": [],
      "name": "name",
      "outputs": [
        {
          "internalType": "string",
          "name": "",
          "type": "string"
        }
      ],
      "stateMutability": "view",
      "type": "function",
      "constant": true
    },
    {
      "inputs": [
        {
          "internalType": "uint256",
          "name": "tokenId",
          "type": "uint256"
        }
      ],
      "name": "ownerOf",
      "outputs": [
        {
          "internalType": "address",
          "name": "",
          "type": "address"
        }
      ],
      "stateMutability": "view",
      "type": "function",
      "constant": true
    },
    {
      "inputs": [
        {
          "internalType": "address",
          "name": "from",
          "type": "address"
        },
        {
          "internalType": "address",
          "name": "to",
          "type": "address"
        },
        {
          "internalType": "uint256",
          "name": "tokenId",
          "type": "uint256"
        }
      ],
      "name": "safeTransferFrom",
      "outputs": [],
      "stateMutability": "nonpayable",
      "type": "function"
    },
    {
      "inputs": [
        {
          "internalType": "address",
          "name": "from",
          "type": "address"
        },
        {
          "internalType": "address",
          "name": "to",
          "type": "address"
        },
        {
          "internalType": "uint256",
          "name": "tokenId",
          "type": "uint256"
        },
        {
          "internalType": "bytes",
          "name": "_data",
          "type": "bytes"
        }
      ],
      "name": "safeTransferFrom",
      "outputs": [],
      "stateMutability": "nonpayable",
      "type": "function"
    },
    {
      "inputs": [
        {
          "internalType": "address",
          "name": "operator",
          "type": "address"
        },
        {
          "internalType": "bool",
          "name": "approved",
          "type": "bool"
        }
      ],
      "name": "setApprovalForAll",
      "outputs": [],
      "stateMutability": "nonpayable",
      "type": "function"
    },
    {
      "inputs": [
        {
          "internalType": "bytes4",
          "name": "interfaceId",
          "type": "bytes4"
        }
      ],
      "name": "supportsInterface",
      "outputs": [
        {
          "internalType": "bool",
          "name": "",
          "type": "bool"
        }
      ],
      "stateMutability": "view",
      "type": "function",
      "constant": true
    },
    {
      "inputs": [],
      "name": "symbol",
      "outputs": [
        {
          "internalType": "string",
          "name": "",
          "type": "string"
        }
      ],
      "stateMutability": "view",
      "type": "function",
      "constant": true
    },
    {
      "inputs": [
        {
          "internalType": "uint256",
          "name": "index",
          "type": "uint256"
        }
      ],
      "name": "tokenByIndex",
      "outputs": [
        {
          "internalType": "uint256",
          "name": "",
          "type": "uint256"
        }
      ],
      "stateMutability": "view",
      "type": "function",
      "constant": true
    },
    {
      "inputs": [
        {
          "internalType": "address",
          "name": "owner",
          "type": "address"
        },
        {
          "internalType": "uint256",
          "name": "index",
          "type": "uint256"
        }
      ],
      "name": "tokenOfOwnerByIndex",
      "outputs": [
        {
          "internalType": "uint256",
          "name": "",
          "type": "uint256"
        }
      ],
      "stateMutability": "view",
      "type": "function",
      "constant": true
    },
    {
      "inputs": [
        {
          "internalType": "uint256",
          "name": "tokenId",
          "type": "uint256"
        }
      ],
      "name": "tokenURI",
      "outputs": [
        {
          "internalType": "string",
          "name": "",
          "type": "string"
        }
      ],
      "stateMutability": "view",
      "type": "function",
      "constant": true
    },
    {
      "inputs": [],
      "name": "totalSupply",
      "outputs": [
        {
          "internalType": "uint256",
          "name": "",
          "type": "uint256"
        }
      ],
      "stateMutability": "view",
      "type": "function",
      "constant": true
    },
    {
      "inputs": [
        {
          "internalType": "address",
          "name": "from",
          "type": "address"
        },
        {
          "internalType": "address",
          "name": "to",
          "type": "address"
        },
        {
          "internalType": "uint256",
          "name": "tokenId",
          "type": "uint256"
        }
      ],
      "name": "transferFrom",
      "outputs": [],
      "stateMutability": "nonpayable",
      "type": "function"
    },
    {
      "inputs": [
        {
          "internalType": "address",
          "name": "breeder",
          "type": "address"
        }
      ],
      "name": "registerBreeder",
      "outputs": [],
      "stateMutability": "nonpayable",
      "type": "function"
    },
    {
      "inputs": [
        {
          "internalType": "address",
          "name": "breeder",
          "type": "address"
        },
        {
          "internalType": "string",
          "name": "feathers",
          "type": "string"
        },
        {
          "internalType": "uint256",
          "name": "weight",
          "type": "uint256"
        },
        {
          "internalType": "uint256",
          "name": "size",
          "type": "uint256"
        },
        {
          "internalType": "uint256",
          "name": "aggressivity",
          "type": "uint256"
        }
      ],
      "name": "declareAnimal",
      "outputs": [
        {
          "internalType": "uint256",
          "name": "",
          "type": "uint256"
        }
      ],
      "stateMutability": "nonpayable",
      "type": "function"
    },
    {
      "inputs": [
        {
          "internalType": "uint256",
          "name": "tokenId",
          "type": "uint256"
        }
      ],
      "name": "deadAnimal",
      "outputs": [],
      "stateMutability": "nonpayable",
      "type": "function"
    },
    {
      "inputs": [
        {
          "internalType": "uint256",
          "name": "tokenId1",
          "type": "uint256"
        },
        {
          "internalType": "uint256",
          "name": "tokenId2",
          "type": "uint256"
        }
      ],
      "name": "breedAnimal",
      "outputs": [],
      "stateMutability": "nonpayable",
      "type": "function"
    },
    {
      "inputs": [
        {
          "internalType": "uint256",
          "name": "price",
          "type": "uint256"
        },
        {
          "internalType": "uint256",
          "name": "tokenId",
          "type": "uint256"
        }
      ],
      "name": "createAuction",
      "outputs": [],
      "stateMutability": "nonpayable",
      "type": "function"
    },
    {
      "inputs": [
        {
          "internalType": "uint256",
          "name": "tokenId",
          "type": "uint256"
        }
      ],
      "name": "bidOnAuction",
      "outputs": [],
      "stateMutability": "payable",
      "type": "function",
      "payable": true
    },
    {
      "inputs": [
        {
          "internalType": "uint256",
          "name": "tokenId",
          "type": "uint256"
        }
      ],
      "name": "acceptAuction",
      "outputs": [],
      "stateMutability": "nonpayable",
      "type": "function"
    },
    {
      "inputs": [
        {
          "internalType": "uint256",
          "name": "tokenId",
          "type": "uint256"
        }
      ],
      "name": "claimAuction",
      "outputs": [],
      "stateMutability": "nonpayable",
      "type": "function"
    },
    {
      "inputs": [
        {
          "internalType": "uint256",
          "name": "tokenId",
          "type": "uint256"
        }
      ],
      "name": "proposeFight",
      "outputs": [],
      "stateMutability": "payable",
      "type": "function",
      "payable": true
    },
    {
      "inputs": [
        {
          "internalType": "uint256",
          "name": "tokenId1",
          "type": "uint256"
        },
        {
          "internalType": "uint256",
          "name": "tokenId2",
          "type": "uint256"
        }
      ],
      "name": "agreeToFight",
      "outputs": [],
      "stateMutability": "payable",
      "type": "function",
      "payable": true
    }
  ],
  "bytecode": "0x608060405260006010553480156200001657600080fd5b506040518060400160405280600a81526020017f4672616e63697374616e000000000000000000000000000000000000000000008152506040518060400160405280600381526020017f436f7100000000000000000000000000000000000000000000000000000000008152506200009b6301ffc9a760e01b6200015e60201b60201c565b8160069080519060200190620000b392919062000267565b508060079080519060200190620000cc92919062000267565b50620000e56380ac58cd60e01b6200015e60201b60201c565b620000fd635b5e139f60e01b6200015e60201b60201c565b6200011563780e9d6360e01b6200015e60201b60201c565b505033600f60006101000a81548173ffffffffffffffffffffffffffffffffffffffff021916908373ffffffffffffffffffffffffffffffffffffffff1602179055506200031d565b63ffffffff60e01b817bffffffffffffffffffffffffffffffffffffffffffffffffffffffff19161415620001fb576040517f08c379a000000000000000000000000000000000000000000000000000000000815260040180806020018281038252601c8152602001807f4552433136353a20696e76616c696420696e746572666163652069640000000081525060200191505060405180910390fd5b6001600080837bffffffffffffffffffffffffffffffffffffffffffffffffffffffff19167bffffffffffffffffffffffffffffffffffffffffffffffffffffffff1916815260200190815260200160002060006101000a81548160ff02191690831515021790555050565b828054600181600116156101000203166002900490600052602060002090601f0160209004810192826200029f5760008555620002eb565b82601f10620002ba57805160ff1916838001178555620002eb565b82800160010185558215620002eb579182015b82811115620002ea578251825591602001919060010190620002cd565b5b509050620002fa9190620002fe565b5090565b5b8082111562000319576000816000905550600101620002ff565b5090565b61418a806200032d6000396000f3fe6080604052600436106101cd5760003560e01c80636352211e116100f7578063b88d4fde11610095578063df6a37aa11610064578063df6a37aa14610d25578063e985e9c514610d84578063ec9b6db914610e0b578063ef108af714610e46576101cd565b8063b88d4fde14610a0d578063c1722d2b14610b1f578063c87b56dd14610b57578063db42ef3014610c0b576101cd565b806370a08231116100d157806370a082311461088057806395d89b41146108e55780639aafc6c914610975578063a22cb465146109b0576101cd565b80636352211e1461075d5780636c0360eb146107c25780636d4fdc5114610852576101cd565b8063229fbb561161016f57806342842e0e1161013e57806342842e0e146105fd578063476fd474146106785780634f6ccce7146106c95780635e6bab6814610718576101cd565b8063229fbb561461047e57806323b872dd146104e557806326b7aeea146105605780632f745c591461058e576101cd565b8063081812fc116101ab578063081812fc14610317578063095ea7b31461037c5780631200617f146103d757806318160ddd14610453576101cd565b80630121683f146101d257806301ffc9a71461021757806306fdde0314610287575b600080fd5b3480156101de57600080fd5b50610215600480360360408110156101f557600080fd5b810190808035906020019092919080359060200190929190505050610e81565b005b34801561022357600080fd5b5061026f6004803603602081101561023a57600080fd5b8101908080357bffffffffffffffffffffffffffffffffffffffffffffffffffffffff19169060200190929190505050610feb565b60405180821515815260200191505060405180910390f35b34801561029357600080fd5b5061029c611052565b6040518080602001828103825283818151815260200191508051906020019080838360005b838110156102dc5780820151818401526020810190506102c1565b50505050905090810190601f1680156103095780820380516001836020036101000a031916815260200191505b509250505060405180910390f35b34801561032357600080fd5b506103506004803603602081101561033a57600080fd5b81019080803590602001909291905050506110f4565b604051808273ffffffffffffffffffffffffffffffffffffffff16815260200191505060405180910390f35b34801561038857600080fd5b506103d56004803603604081101561039f57600080fd5b81019080803573ffffffffffffffffffffffffffffffffffffffff1690602001909291908035906020019092919050505061118f565b005b3480156103e357600080fd5b50610410600480360360208110156103fa57600080fd5b81019080803590602001909291905050506112d3565b6040518085815260200184815260200183151581526020018273ffffffffffffffffffffffffffffffffffffffff16815260200194505050505060405180910390f35b34801561045f57600080fd5b50610468611330565b6040518082815260200191505060405180910390f35b34801561048a57600080fd5b506104cd600480360360208110156104a157600080fd5b81019080803573ffffffffffffffffffffffffffffffffffffffff169060200190929190505050611341565b60405180821515815260200191505060405180910390f35b3480156104f157600080fd5b5061055e6004803603606081101561050857600080fd5b81019080803573ffffffffffffffffffffffffffffffffffffffff169060200190929190803573ffffffffffffffffffffffffffffffffffffffff16906020019092919080359060200190929190505050611361565b005b61058c6004803603602081101561057657600080fd5b81019080803590602001909291905050506113d7565b005b34801561059a57600080fd5b506105e7600480360360408110156105b157600080fd5b81019080803573ffffffffffffffffffffffffffffffffffffffff16906020019092919080359060200190929190505050611616565b6040518082815260200191505060405180910390f35b34801561060957600080fd5b506106766004803603606081101561062057600080fd5b81019080803573ffffffffffffffffffffffffffffffffffffffff169060200190929190803573ffffffffffffffffffffffffffffffffffffffff16906020019092919080359060200190929190505050611671565b005b34801561068457600080fd5b506106c76004803603602081101561069b57600080fd5b81019080803573ffffffffffffffffffffffffffffffffffffffff169060200190929190505050611691565b005b3480156106d557600080fd5b50610702600480360360208110156106ec57600080fd5b8101908080359060200190929190505050611746565b6040518082815260200191505060405180910390f35b34801561072457600080fd5b5061075b6004803603604081101561073b57600080fd5b810190808035906020019092919080359060200190929190505050611769565b005b34801561076957600080fd5b506107966004803603602081101561078057600080fd5b81019080803590602001909291905050506119be565b604051808273ffffffffffffffffffffffffffffffffffffffff16815260200191505060405180910390f35b3480156107ce57600080fd5b506107d76119f5565b6040518080602001828103825283818151815260200191508051906020019080838360005b838110156108175780820151818401526020810190506107fc565b50505050905090810190601f1680156108445780820380516001836020036101000a031916815260200191505b509250505060405180910390f35b61087e6004803603602081101561086857600080fd5b8101908080359060200190929190505050611a97565b005b34801561088c57600080fd5b506108cf600480360360208110156108a357600080fd5b81019080803573ffffffffffffffffffffffffffffffffffffffff169060200190929190505050611b98565b6040518082815260200191505060405180910390f35b3480156108f157600080fd5b506108fa611c6d565b6040518080602001828103825283818151815260200191508051906020019080838360005b8381101561093a57808201518184015260208101905061091f565b50505050905090810190601f1680156109675780820380516001836020036101000a031916815260200191505b509250505060405180910390f35b34801561098157600080fd5b506109ae6004803603602081101561099857600080fd5b8101908080359060200190929190505050611d0f565b005b3480156109bc57600080fd5b50610a0b600480360360408110156109d357600080fd5b81019080803573ffffffffffffffffffffffffffffffffffffffff169060200190929190803515159060200190929190505050611e4d565b005b348015610a1957600080fd5b50610b1d60048036036080811015610a3057600080fd5b81019080803573ffffffffffffffffffffffffffffffffffffffff169060200190929190803573ffffffffffffffffffffffffffffffffffffffff1690602001909291908035906020019092919080359060200190640100000000811115610a9757600080fd5b820183602082011115610aa957600080fd5b80359060200191846001830284011164010000000083111715610acb57600080fd5b91908080601f016020809104026020016040519081016040528093929190818152602001838380828437600081840152601f19601f820116905080830192505050505050509192919290505050612003565b005b610b5560048036036040811015610b3557600080fd5b81019080803590602001909291908035906020019092919050505061207b565b005b348015610b6357600080fd5b50610b9060048036036020811015610b7a57600080fd5b8101908080359060200190929190505050612253565b6040518080602001828103825283818151815260200191508051906020019080838360005b83811015610bd0578082015181840152602081019050610bb5565b50505050905090810190601f168015610bfd5780820380516001836020036101000a031916815260200191505b509250505060405180910390f35b348015610c1757600080fd5b50610d0f600480360360a0811015610c2e57600080fd5b81019080803573ffffffffffffffffffffffffffffffffffffffff16906020019092919080359060200190640100000000811115610c6b57600080fd5b820183602082011115610c7d57600080fd5b80359060200191846001830284011164010000000083111715610c9f57600080fd5b91908080601f016020809104026020016040519081016040528093929190818152602001838380828437600081840152601f19601f820116905080830192505050505050509192919290803590602001909291908035906020019092919080359060200190929190505050612524565b6040518082815260200191505060405180910390f35b348015610d3157600080fd5b50610d5e60048036036020811015610d4857600080fd5b8101908080359060200190929190505050612637565b604051808481526020018381526020018215158152602001935050505060405180910390f35b348015610d9057600080fd5b50610df360048036036040811015610da757600080fd5b81019080803573ffffffffffffffffffffffffffffffffffffffff169060200190929190803573ffffffffffffffffffffffffffffffffffffffff16906020019092919050505061266e565b60405180821515815260200191505060405180910390f35b348015610e1757600080fd5b50610e4460048036036020811015610e2e57600080fd5b8101908080359060200190929190505050612702565b005b348015610e5257600080fd5b50610e7f60048036036020811015610e6957600080fd5b81019080803590602001909291905050506127a4565b005b600b60003373ffffffffffffffffffffffffffffffffffffffff1673ffffffffffffffffffffffffffffffffffffffff16815260200190815260200160002060009054906101000a900460ff16610ed757600080fd5b610ee0816119be565b73ffffffffffffffffffffffffffffffffffffffff163373ffffffffffffffffffffffffffffffffffffffff1614610f1757600080fd5b60405180608001604052808381526020016202a300420181526020016001151581526020013373ffffffffffffffffffffffffffffffffffffffff16815250600c6000838152602001908152602001600020600082015181600001556020820151816001015560408201518160020160006101000a81548160ff02191690831515021790555060608201518160020160016101000a81548173ffffffffffffffffffffffffffffffffffffffff021916908373ffffffffffffffffffffffffffffffffffffffff1602179055509050505050565b6000806000837bffffffffffffffffffffffffffffffffffffffffffffffffffffffff19167bffffffffffffffffffffffffffffffffffffffffffffffffffffffff1916815260200190815260200160002060009054906101000a900460ff169050919050565b606060068054600181600116156101000203166002900480601f0160208091040260200160405190810160405280929190818152602001828054600181600116156101000203166002900480156110ea5780601f106110bf576101008083540402835291602001916110ea565b820191906000526020600020905b8154815290600101906020018083116110cd57829003601f168201915b5050505050905090565b60006110ff82612839565b611154576040517f08c379a000000000000000000000000000000000000000000000000000000000815260040180806020018281038252602c815260200180614053602c913960400191505060405180910390fd5b6004600083815260200190815260200160002060009054906101000a900473ffffffffffffffffffffffffffffffffffffffff169050919050565b600061119a826119be565b90508073ffffffffffffffffffffffffffffffffffffffff168373ffffffffffffffffffffffffffffffffffffffff161415611221576040517f08c379a00000000000000000000000000000000000000000000000000000000081526004018080602001828103825260218152602001806141036021913960400191505060405180910390fd5b8073ffffffffffffffffffffffffffffffffffffffff16611240612856565b73ffffffffffffffffffffffffffffffffffffffff16148061126f575061126e81611269612856565b61266e565b5b6112c4576040517f08c379a0000000000000000000000000000000000000000000000000000000008152600401808060200182810382526038815260200180613fa66038913960400191505060405180910390fd5b6112ce838361285e565b505050565b600c6020528060005260406000206000915090508060000154908060010154908060020160009054906101000a900460ff16908060020160019054906101000a900473ffffffffffffffffffffffffffffffffffffffff16905084565b600061133c6002612917565b905090565b600b6020528060005260406000206000915054906101000a900460ff1681565b61137261136c612856565b8261292c565b6113c7576040517f08c379a00000000000000000000000000000000000000000000000000000000081526004018080602001828103825260318152602001806141246031913960400191505060405180910390fd5b6113d2838383612a20565b505050565b600b60003373ffffffffffffffffffffffffffffffffffffffff1673ffffffffffffffffffffffffffffffffffffffff16815260200190815260200160002060009054906101000a900460ff1661142d57600080fd5b42600c6000838152602001908152602001600020600101541161144f57600080fd5b34600c6000838152602001908152602001600020600001541061147157600080fd5b600c600082815260200190815260200160002060020160009054906101000a900460ff1661149e57600080fd5b6114a7816119be565b73ffffffffffffffffffffffffffffffffffffffff16600c600083815260200190815260200160002060020160019054906101000a900473ffffffffffffffffffffffffffffffffffffffff1673ffffffffffffffffffffffffffffffffffffffff16146115a357600c600082815260200190815260200160002060020160019054906101000a900473ffffffffffffffffffffffffffffffffffffffff1673ffffffffffffffffffffffffffffffffffffffff166108fc600c6000848152602001908152602001600020600001549081150290604051600060405180830381858888f193505050501580156115a1573d6000803e3d6000fd5b505b34600c60008381526020019081526020016000206000018190555033600c600083815260200190815260200160002060020160016101000a81548173ffffffffffffffffffffffffffffffffffffffff021916908373ffffffffffffffffffffffffffffffffffffffff16021790555050565b600061166982600160008673ffffffffffffffffffffffffffffffffffffffff1673ffffffffffffffffffffffffffffffffffffffff168152602001908152602001600020612c6390919063ffffffff16565b905092915050565b61168c83838360405180602001604052806000815250612003565b505050565b600f60009054906101000a900473ffffffffffffffffffffffffffffffffffffffff1673ffffffffffffffffffffffffffffffffffffffff163373ffffffffffffffffffffffffffffffffffffffff16146116eb57600080fd5b6001600b60008373ffffffffffffffffffffffffffffffffffffffff1673ffffffffffffffffffffffffffffffffffffffff16815260200190815260200160002060006101000a81548160ff02191690831515021790555050565b60008061175d836002612c7d90919063ffffffff16565b50905080915050919050565b600b60003373ffffffffffffffffffffffffffffffffffffffff1673ffffffffffffffffffffffffffffffffffffffff16815260200190815260200160002060009054906101000a900460ff166117bf57600080fd5b6117c8826119be565b73ffffffffffffffffffffffffffffffffffffffff163373ffffffffffffffffffffffffffffffffffffffff161480156118355750611806816119be565b73ffffffffffffffffffffffffffffffffffffffff163373ffffffffffffffffffffffffffffffffffffffff16145b61183e57600080fd5b6000600e60008381526020019081526020016000206000018054600181600116156101000203166002900480601f0160208091040260200160405190810160405280929190818152602001828054600181600116156101000203166002900480156118ea5780601f106118bf576101008083540402835291602001916118ea565b820191906000526020600020905b8154815290600101906020018083116118cd57829003601f168201915b5050505050905060006002600e600085815260200190815260200160002060010154600e600087815260200190815260200160002060010154018161192b57fe5b04905060006002600e600086815260200190815260200160002060020154600e600088815260200190815260200160002060020154018161196857fe5b04905060006002600e600087815260200190815260200160002060030154600e60008981526020019081526020016000206003015401816119a557fe5b0490506119b53385858585612524565b50505050505050565b60006119ee82604051806060016040528060298152602001614008602991396002612ca99092919063ffffffff16565b9050919050565b606060098054600181600116156101000203166002900480601f016020809104026020016040519081016040528092919081815260200182805460018160011615610100020316600290048015611a8d5780601f10611a6257610100808354040283529160200191611a8d565b820191906000526020600020905b815481529060010190602001808311611a7057829003601f168201915b5050505050905090565b600b60003373ffffffffffffffffffffffffffffffffffffffff1673ffffffffffffffffffffffffffffffffffffffff16815260200190815260200160002060009054906101000a900460ff16611aed57600080fd5b3373ffffffffffffffffffffffffffffffffffffffff16611b0d826119be565b73ffffffffffffffffffffffffffffffffffffffff1614611b2d57600080fd5b604051806060016040528082815260200134815260200160011515815250600d6000838152602001908152602001600020600082015181600001556020820151816001015560408201518160020160006101000a81548160ff02191690831515021790555090505050565b60008073ffffffffffffffffffffffffffffffffffffffff168273ffffffffffffffffffffffffffffffffffffffff161415611c1f576040517f08c379a000000000000000000000000000000000000000000000000000000000815260040180806020018281038252602a815260200180613fde602a913960400191505060405180910390fd5b611c66600160008473ffffffffffffffffffffffffffffffffffffffff1673ffffffffffffffffffffffffffffffffffffffff168152602001908152602001600020612cc8565b9050919050565b606060078054600181600116156101000203166002900480601f016020809104026020016040519081016040528092919081815260200182805460018160011615610100020316600290048015611d055780601f10611cda57610100808354040283529160200191611d05565b820191906000526020600020905b815481529060010190602001808311611ce857829003601f168201915b5050505050905090565b600b60003373ffffffffffffffffffffffffffffffffffffffff1673ffffffffffffffffffffffffffffffffffffffff16815260200190815260200160002060009054906101000a900460ff16611d6557600080fd5b600c600082815260200190815260200160002060020160019054906101000a900473ffffffffffffffffffffffffffffffffffffffff1673ffffffffffffffffffffffffffffffffffffffff163373ffffffffffffffffffffffffffffffffffffffff1614611dd357600080fd5b600c600082815260200190815260200160002060020160009054906101000a900460ff1615611e0157600080fd5b611e4a611e0d826119be565b600c600084815260200190815260200160002060020160019054906101000a900473ffffffffffffffffffffffffffffffffffffffff1683611361565b50565b611e55612856565b73ffffffffffffffffffffffffffffffffffffffff168273ffffffffffffffffffffffffffffffffffffffff161415611ef6576040517f08c379a00000000000000000000000000000000000000000000000000000000081526004018080602001828103825260198152602001807f4552433732313a20617070726f766520746f2063616c6c65720000000000000081525060200191505060405180910390fd5b8060056000611f03612856565b73ffffffffffffffffffffffffffffffffffffffff1673ffffffffffffffffffffffffffffffffffffffff16815260200190815260200160002060008473ffffffffffffffffffffffffffffffffffffffff1673ffffffffffffffffffffffffffffffffffffffff16815260200190815260200160002060006101000a81548160ff0219169083151502179055508173ffffffffffffffffffffffffffffffffffffffff16611fb0612856565b73ffffffffffffffffffffffffffffffffffffffff167f17307eab39ab6107e8899845ad3d59bd9653f200f220920489ca2b5937696c318360405180821515815260200191505060405180910390a35050565b61201461200e612856565b8361292c565b612069576040517f08c379a00000000000000000000000000000000000000000000000000000000081526004018080602001828103825260318152602001806141246031913960400191505060405180910390fd5b61207584848484612cdd565b50505050565b600b60003373ffffffffffffffffffffffffffffffffffffffff1673ffffffffffffffffffffffffffffffffffffffff16815260200190815260200160002060009054906101000a900460ff166120d157600080fd5b600d60008381526020019081526020016000206001015434146120f357600080fd5b81600d6000848152602001908152602001600020600001819055506000612147600e600084815260200190815260200160002060030154600e60008681526020019081526020016000206003015401612d4f565b9050600e60008481526020019081526020016000206003015481116121dc5761216f836119be565b73ffffffffffffffffffffffffffffffffffffffff166108fc6002600d600087815260200190815260200160002060010154029081150290604051600060405180830381858888f193505050501580156121cd573d6000803e3d6000fd5b506121d783612702565b61224e565b6121e5826119be565b73ffffffffffffffffffffffffffffffffffffffff166108fc6002600d600087815260200190815260200160002060010154029081150290604051600060405180830381858888f19350505050158015612243573d6000803e3d6000fd5b5061224d82612702565b5b505050565b606061225e82612839565b6122b3576040517f08c379a000000000000000000000000000000000000000000000000000000000815260040180806020018281038252602f8152602001806140d4602f913960400191505060405180910390fd5b6000600860008481526020019081526020016000208054600181600116156101000203166002900480601f01602080910402602001604051908101604052809291908181526020018280546001816001161561010002031660029004801561235c5780601f106123315761010080835404028352916020019161235c565b820191906000526020600020905b81548152906001019060200180831161233f57829003601f168201915b50505050509050600061236d6119f5565b905060008151141561238357819250505061251f565b6000825111156124545780826040516020018083805190602001908083835b602083106123c557805182526020820191506020810190506020830392506123a2565b6001836020036101000a03801982511681845116808217855250505050505090500182805190602001908083835b6020831061241657805182526020820191506020810190506020830392506123f3565b6001836020036101000a038019825116818451168082178552505050505050905001925050506040516020818303038152906040529250505061251f565b8061245e85612dc8565b6040516020018083805190602001908083835b602083106124945780518252602082019150602081019050602083039250612471565b6001836020036101000a03801982511681845116808217855250505050505090500182805190602001908083835b602083106124e557805182526020820191506020810190506020830392506124c2565b6001836020036101000a03801982511681845116808217855250505050505090500192505050604051602081830303815290604052925050505b919050565b6000600b60003373ffffffffffffffffffffffffffffffffffffffff1673ffffffffffffffffffffffffffffffffffffffff16815260200190815260200160002060009054906101000a900460ff1661257c57600080fd5b600a600081548092919060010191905055506000600a54905061259f8782612f0f565b604051806080016040528087815260200186815260200185815260200184815250600e600083815260200190815260200160002060008201518160000190805190602001906125ef929190613de8565b5060208201518160010155604082015181600201556060820151816003015590505061262a8160405180602001604052806000815250613103565b8091505095945050505050565b600d6020528060005260406000206000915090508060000154908060010154908060020160009054906101000a900460ff16905083565b6000600560008473ffffffffffffffffffffffffffffffffffffffff1673ffffffffffffffffffffffffffffffffffffffff16815260200190815260200160002060008373ffffffffffffffffffffffffffffffffffffffff1673ffffffffffffffffffffffffffffffffffffffff16815260200190815260200160002060009054906101000a900460ff16905092915050565b600b60003373ffffffffffffffffffffffffffffffffffffffff1673ffffffffffffffffffffffffffffffffffffffff16815260200190815260200160002060009054906101000a900460ff1661275857600080fd5b612761816119be565b73ffffffffffffffffffffffffffffffffffffffff163373ffffffffffffffffffffffffffffffffffffffff161461279857600080fd5b6127a18161318d565b50565b6127e4600c600083815260200190815260200160002060020160019054906101000a900473ffffffffffffffffffffffffffffffffffffffff168261118f565b42600c600083815260200190815260200160002060010154111561280757600080fd5b6000600c600083815260200190815260200160002060020160006101000a81548160ff02191690831515021790555050565b600061284f8260026132c790919063ffffffff16565b9050919050565b600033905090565b816004600083815260200190815260200160002060006101000a81548173ffffffffffffffffffffffffffffffffffffffff021916908373ffffffffffffffffffffffffffffffffffffffff160217905550808273ffffffffffffffffffffffffffffffffffffffff166128d1836119be565b73ffffffffffffffffffffffffffffffffffffffff167f8c5be1e5ebec7d5bd14f71427d1e84f3dd0314c0f7b2291e5b200ac8c7c3b92560405160405180910390a45050565b6000612925826000016132e1565b9050919050565b600061293782612839565b61298c576040517f08c379a000000000000000000000000000000000000000000000000000000000815260040180806020018281038252602c815260200180613f7a602c913960400191505060405180910390fd5b6000612997836119be565b90508073ffffffffffffffffffffffffffffffffffffffff168473ffffffffffffffffffffffffffffffffffffffff161480612a0657508373ffffffffffffffffffffffffffffffffffffffff166129ee846110f4565b73ffffffffffffffffffffffffffffffffffffffff16145b80612a175750612a16818561266e565b5b91505092915050565b8273ffffffffffffffffffffffffffffffffffffffff16612a40826119be565b73ffffffffffffffffffffffffffffffffffffffff1614612aac576040517f08c379a00000000000000000000000000000000000000000000000000000000081526004018080602001828103825260298152602001806140ab6029913960400191505060405180910390fd5b600073ffffffffffffffffffffffffffffffffffffffff168273ffffffffffffffffffffffffffffffffffffffff161415612b32576040517f08c379a0000000000000000000000000000000000000000000000000000000008152600401808060200182810382526024815260200180613f306024913960400191505060405180910390fd5b612b3d8383836132f2565b612b4860008261285e565b612b9981600160008673ffffffffffffffffffffffffffffffffffffffff1673ffffffffffffffffffffffffffffffffffffffff1681526020019081526020016000206132f790919063ffffffff16565b50612beb81600160008573ffffffffffffffffffffffffffffffffffffffff1673ffffffffffffffffffffffffffffffffffffffff16815260200190815260200160002061331190919063ffffffff16565b50612c028183600261332b9092919063ffffffff16565b50808273ffffffffffffffffffffffffffffffffffffffff168473ffffffffffffffffffffffffffffffffffffffff167fddf252ad1be2c89b69c2b068fc378daa952ba7f163c4a11628f55a4df523b3ef60405160405180910390a4505050565b6000612c728360000183613360565b60001c905092915050565b600080600080612c9086600001866133e3565b915091508160001c8160001c9350935050509250929050565b6000612cbc846000018460001b8461347c565b60001c90509392505050565b6000612cd682600001613572565b9050919050565b612ce8848484612a20565b612cf484848484613583565b612d49576040517f08c379a0000000000000000000000000000000000000000000000000000000008152600401808060200182810382526032815260200180613efe6032913960400191505060405180910390fd5b50505050565b6000601060008154809291906001019190505550814233601054604051602001808481526020018373ffffffffffffffffffffffffffffffffffffffff1660601b815260140182815260200193505050506040516020818303038152906040528051906020012060001c81612dc057fe5b069050919050565b60606000821415612e10576040518060400160405280600181526020017f30000000000000000000000000000000000000000000000000000000000000008152509050612f0a565b600082905060005b60008214612e3a578080600101915050600a8281612e3257fe5b049150612e18565b60008167ffffffffffffffff81118015612e5357600080fd5b506040519080825280601f01601f191660200182016040528015612e865781602001600182028036833780820191505090505b50905060006001830390508593505b60008414612f0257600a8481612ea757fe5b0660300160f81b82828060019003935081518110612ec157fe5b60200101907effffffffffffffffffffffffffffffffffffffffffffffffffffffffffffff1916908160001a905350600a8481612efa57fe5b049350612e95565b819450505050505b919050565b600073ffffffffffffffffffffffffffffffffffffffff168273ffffffffffffffffffffffffffffffffffffffff161415612fb2576040517f08c379a00000000000000000000000000000000000000000000000000000000081526004018080602001828103825260208152602001807f4552433732313a206d696e7420746f20746865207a65726f206164647265737381525060200191505060405180910390fd5b612fbb81612839565b1561302e576040517f08c379a000000000000000000000000000000000000000000000000000000000815260040180806020018281038252601c8152602001807f4552433732313a20746f6b656e20616c7265616479206d696e7465640000000081525060200191505060405180910390fd5b61303a600083836132f2565b61308b81600160008573ffffffffffffffffffffffffffffffffffffffff1673ffffffffffffffffffffffffffffffffffffffff16815260200190815260200160002061331190919063ffffffff16565b506130a28183600261332b9092919063ffffffff16565b50808273ffffffffffffffffffffffffffffffffffffffff16600073ffffffffffffffffffffffffffffffffffffffff167fddf252ad1be2c89b69c2b068fc378daa952ba7f163c4a11628f55a4df523b3ef60405160405180910390a45050565b61310c82612839565b613161576040517f08c379a000000000000000000000000000000000000000000000000000000000815260040180806020018281038252602c81526020018061407f602c913960400191505060405180910390fd5b80600860008481526020019081526020016000209080519060200190613188929190613de8565b505050565b6000613198826119be565b90506131a6816000846132f2565b6131b160008361285e565b60006008600084815260200190815260200160002080546001816001161561010002031660029004905014613200576008600083815260200190815260200160002060006131ff9190613e76565b5b61325182600160008473ffffffffffffffffffffffffffffffffffffffff1673ffffffffffffffffffffffffffffffffffffffff1681526020019081526020016000206132f790919063ffffffff16565b5061326682600261379c90919063ffffffff16565b5081600073ffffffffffffffffffffffffffffffffffffffff168273ffffffffffffffffffffffffffffffffffffffff167fddf252ad1be2c89b69c2b068fc378daa952ba7f163c4a11628f55a4df523b3ef60405160405180910390a45050565b60006132d9836000018360001b6137b6565b905092915050565b600081600001805490509050919050565b505050565b6000613309836000018360001b6137d9565b905092915050565b6000613323836000018360001b6138c1565b905092915050565b6000613357846000018460001b8473ffffffffffffffffffffffffffffffffffffffff1660001b613931565b90509392505050565b6000818360000180549050116133c1576040517f08c379a0000000000000000000000000000000000000000000000000000000008152600401808060200182810382526022815260200180613edc6022913960400191505060405180910390fd5b8260000182815481106133d057fe5b9060005260206000200154905092915050565b60008082846000018054905011613445576040517f08c379a00000000000000000000000000000000000000000000000000000000081526004018080602001828103825260228152602001806140316022913960400191505060405180910390fd5b600084600001848154811061345657fe5b906000526020600020906002020190508060000154816001015492509250509250929050565b60008084600101600085815260200190815260200160002054905060008114158390613543576040517f08c379a00000000000000000000000000000000000000000000000000000000081526004018080602001828103825283818151815260200191508051906020019080838360005b838110156135085780820151818401526020810190506134ed565b50505050905090810190601f1680156135355780820380516001836020036101000a031916815260200191505b509250505060405180910390fd5b5084600001600182038154811061355657fe5b9060005260206000209060020201600101549150509392505050565b600081600001805490509050919050565b60006135a48473ffffffffffffffffffffffffffffffffffffffff16613a0d565b6135b15760019050613794565b600061371b63150b7a0260e01b6135c6612856565b888787604051602401808573ffffffffffffffffffffffffffffffffffffffff1681526020018473ffffffffffffffffffffffffffffffffffffffff16815260200183815260200180602001828103825283818151815260200191508051906020019080838360005b8381101561364a57808201518184015260208101905061362f565b50505050905090810190601f1680156136775780820380516001836020036101000a031916815260200191505b5095505050505050604051602081830303815290604052907bffffffffffffffffffffffffffffffffffffffffffffffffffffffff19166020820180517bffffffffffffffffffffffffffffffffffffffffffffffffffffffff8381831617835250505050604051806060016040528060328152602001613efe603291398773ffffffffffffffffffffffffffffffffffffffff16613a209092919063ffffffff16565b9050600081806020019051602081101561373457600080fd5b8101908080519060200190929190505050905063150b7a0260e01b7bffffffffffffffffffffffffffffffffffffffffffffffffffffffff1916817bffffffffffffffffffffffffffffffffffffffffffffffffffffffff191614925050505b949350505050565b60006137ae836000018360001b613a38565b905092915050565b600080836001016000848152602001908152602001600020541415905092915050565b600080836001016000848152602001908152602001600020549050600081146138b5576000600182039050600060018660000180549050039050600086600001828154811061382457fe5b906000526020600020015490508087600001848154811061384157fe5b906000526020600020018190555060018301876001016000838152602001908152602001600020819055508660000180548061387957fe5b600190038181906000526020600020016000905590558660010160008781526020019081526020016000206000905560019450505050506138bb565b60009150505b92915050565b60006138cd8383613b51565b61392657826000018290806001815401808255809150506001900390600052602060002001600090919091909150558260000180549050836001016000848152602001908152602001600020819055506001905061392b565b600090505b92915050565b60008084600101600085815260200190815260200160002054905060008114156139d857846000016040518060400160405280868152602001858152509080600181540180825580915050600190039060005260206000209060020201600090919091909150600082015181600001556020820151816001015550508460000180549050856001016000868152602001908152602001600020819055506001915050613a06565b828560000160018303815481106139eb57fe5b90600052602060002090600202016001018190555060009150505b9392505050565b600080823b905060008111915050919050565b6060613a2f8484600085613b74565b90509392505050565b60008083600101600084815260200190815260200160002054905060008114613b455760006001820390506000600186600001805490500390506000866000018281548110613a8357fe5b9060005260206000209060020201905080876000018481548110613aa357fe5b9060005260206000209060020201600082015481600001556001820154816001015590505060018301876001016000836000015481526020019081526020016000208190555086600001805480613af657fe5b6001900381819060005260206000209060020201600080820160009055600182016000905550509055866001016000878152602001908152602001600020600090556001945050505050613b4b565b60009150505b92915050565b600080836001016000848152602001908152602001600020541415905092915050565b606082471015613bcf576040517f08c379a0000000000000000000000000000000000000000000000000000000008152600401808060200182810382526026815260200180613f546026913960400191505060405180910390fd5b613bd885613a0d565b613c4a576040517f08c379a000000000000000000000000000000000000000000000000000000000815260040180806020018281038252601d8152602001807f416464726573733a2063616c6c20746f206e6f6e2d636f6e747261637400000081525060200191505060405180910390fd5b6000808673ffffffffffffffffffffffffffffffffffffffff1685876040518082805190602001908083835b60208310613c995780518252602082019150602081019050602083039250613c76565b6001836020036101000a03801982511681845116808217855250505050505090500191505060006040518083038185875af1925050503d8060008114613cfb576040519150601f19603f3d011682016040523d82523d6000602084013e613d00565b606091505b5091509150613d10828286613d1c565b92505050949350505050565b60608315613d2c57829050613de1565b600083511115613d3f5782518084602001fd5b816040517f08c379a00000000000000000000000000000000000000000000000000000000081526004018080602001828103825283818151815260200191508051906020019080838360005b83811015613da6578082015181840152602081019050613d8b565b50505050905090810190601f168015613dd35780820380516001836020036101000a031916815260200191505b509250505060405180910390fd5b9392505050565b828054600181600116156101000203166002900490600052602060002090601f016020900481019282613e1e5760008555613e65565b82601f10613e3757805160ff1916838001178555613e65565b82800160010185558215613e65579182015b82811115613e64578251825591602001919060010190613e49565b5b509050613e729190613ebe565b5090565b50805460018160011615610100020316600290046000825580601f10613e9c5750613ebb565b601f016020900490600052602060002090810190613eba9190613ebe565b5b50565b5b80821115613ed7576000816000905550600101613ebf565b509056fe456e756d657261626c655365743a20696e646578206f7574206f6620626f756e64734552433732313a207472616e7366657220746f206e6f6e20455243373231526563656976657220696d706c656d656e7465724552433732313a207472616e7366657220746f20746865207a65726f2061646472657373416464726573733a20696e73756666696369656e742062616c616e636520666f722063616c6c4552433732313a206f70657261746f7220717565727920666f72206e6f6e6578697374656e7420746f6b656e4552433732313a20617070726f76652063616c6c6572206973206e6f74206f776e6572206e6f7220617070726f76656420666f7220616c6c4552433732313a2062616c616e636520717565727920666f7220746865207a65726f20616464726573734552433732313a206f776e657220717565727920666f72206e6f6e6578697374656e7420746f6b656e456e756d657261626c654d61703a20696e646578206f7574206f6620626f756e64734552433732313a20617070726f76656420717565727920666f72206e6f6e6578697374656e7420746f6b656e4552433732314d657461646174613a2055524920736574206f66206e6f6e6578697374656e7420746f6b656e4552433732313a207472616e73666572206f6620746f6b656e2074686174206973206e6f74206f776e4552433732314d657461646174613a2055524920717565727920666f72206e6f6e6578697374656e7420746f6b656e4552433732313a20617070726f76616c20746f2063757272656e74206f776e65724552433732313a207472616e736665722063616c6c6572206973206e6f74206f776e6572206e6f7220617070726f766564a2646970667358221220ec13102d65b7257d6e5e1f3fa034120f60c1ac934febacdc69f38e5cec7e347664736f6c63430007060033",
  "immutableReferences": {},
  "source": "pragma solidity >=0.6.0 <0.8.0;\n\nimport \"@openzeppelin/contracts/token/ERC721/ERC721.sol\";\n\ncontract Francistan is ERC721 {\n    uint256 private _tokenIds;\n    mapping (address => bool) public breeders;\n    mapping (uint256 => Auction) public auction;\n    mapping (uint256 => Fight) public fight;\n    mapping (uint256 => Animal) animals;\n    address admin;\n    uint randNonce = 0; \n\n    struct Fight{\n        uint256 tokenId;\n        uint256 stake;\n        bool isActive;\n    }\n    struct Auction{\n        uint256 price;\n        uint256 time;\n        bool isActive;\n        address payable bidder;\n    }\n    struct Animal{\n        string feathers;\n        uint256 weight;\n        uint256 size;\n        uint256 aggressivity;\n    }\n    constructor() ERC721(\"Francistan\", \"Coq\") public {\n        admin = msg.sender;\n    }\n\n    modifier isBreeder(){\n        require(breeders[msg.sender]);\n        _;\n    }\n\n    function registerBreeder(address breeder) public {\n        require(msg.sender==admin);\n        breeders[breeder]=true;\n    }\n    \n    function declareAnimal(address breeder, string memory feathers, uint256 weight,uint256 size,uint256 aggressivity) isBreeder public returns(uint256){\n        _tokenIds++;\n        uint256 newItemId = _tokenIds;\n        _mint(breeder, newItemId);\n        animals[newItemId]=Animal(feathers,weight,size,aggressivity);\n        _setTokenURI(newItemId, \"\");\n        return newItemId;\n    }\n\n    function deadAnimal(uint256 tokenId) public isBreeder {\n        require(msg.sender==ownerOf(tokenId));\n        _burn(tokenId);\n    }\n\n    function breedAnimal(uint256 tokenId1,uint256 tokenId2) public isBreeder{\n        require(msg.sender==ownerOf(tokenId1) && msg.sender==ownerOf(tokenId2));\n        string memory feathersChild = animals[tokenId2].feathers;\n        uint256 weightChild = (animals[tokenId1].weight+ animals[tokenId2].weight)/2;\n        uint256 sizeChild = (animals[tokenId1].size+ animals[tokenId2].size)/2;\n        uint256 aggressivityChild = (animals[tokenId1].aggressivity+ animals[tokenId2].aggressivity)/2;\n        declareAnimal(msg.sender,feathersChild , weightChild, sizeChild, aggressivityChild);\n    }\n\n    function createAuction(uint256 price, uint256 tokenId) public isBreeder{\n        require(msg.sender==ownerOf(tokenId));\n        auction[tokenId]=Auction(price,block.timestamp+60*60*24*2,true,msg.sender);\n    }\n\n    function bidOnAuction(uint256 tokenId) public payable isBreeder{\n        require(auction[tokenId].time>block.timestamp);\n        require(auction[tokenId].price<msg.value);\n        require(auction[tokenId].isActive);\n        if (auction[tokenId].bidder!= ownerOf(tokenId)){\n            auction[tokenId].bidder.transfer(auction[tokenId].price);\n        }\n        auction[tokenId].price=msg.value;\n        auction[tokenId].bidder=msg.sender;\n    }\n    function acceptAuction(uint256 tokenId) public {\n        approve(auction[tokenId].bidder,tokenId);\n        require(auction[tokenId].time<=block.timestamp);\n        auction[tokenId].isActive=false;\n    }\n    function claimAuction(uint256 tokenId) public isBreeder{\n        require(msg.sender==auction[tokenId].bidder);\n        require(!auction[tokenId].isActive);\n        transferFrom(ownerOf(tokenId),auction[tokenId].bidder,tokenId);\n    }\n\n    function proposeFight(uint256 tokenId) public payable isBreeder{\n        require(ownerOf(tokenId)==msg.sender);\n        fight[tokenId]=Fight(tokenId, msg.value, true);\n    }\n    \n    function agreeToFight(uint256 tokenId1, uint256 tokenId2) public payable isBreeder{\n        require(msg.value==fight[tokenId1].stake);\n        fight[tokenId1].tokenId=tokenId1;\n        uint256 result = animalFighting(animals[tokenId1].aggressivity+animals[tokenId2].aggressivity);\n        if (result<= animals[tokenId1].aggressivity) {\n            payable(ownerOf(tokenId1)).transfer(fight[tokenId1].stake*2);\n            deadAnimal(tokenId1);\n        }\n        else {\n            payable(ownerOf(tokenId2)).transfer(fight[tokenId1].stake*2);\n            deadAnimal(tokenId2);\n        }\n    }\n\n    function animalFighting(uint256 odd) internal returns(uint){\n        \n        randNonce++;   \n       return uint(keccak256(abi.encodePacked(block.timestamp,  \n                                              msg.sender,  \n                                              randNonce))) % odd; \n    }\n\n    function uint2str(uint _i) internal pure returns (string memory _uintAsString) {\n    if (_i == 0) {\n        return \"0\";\n    }\n    uint j = _i;\n    uint len;\n    while (j != 0) {\n        len++;\n        j /= 10;\n    }\n    bytes memory bstr = new bytes(len);\n    uint k = len - 1;\n    while (_i != 0) {\n        bstr[k--] = byte(uint8(48 + _i % 10));\n        _i /= 10;\n    }\n    return string(bstr);\n    }\n}",
  "sourcePath": "/Users/lucaslevy/la_cryptoferme/contracts/Token.sol",
  "compiler": {
    "name": "solc",
    "version": "0.7.6+commit.7338295f.Emscripten.clang"
  },
  "schemaVersion": "3.3.4",
  "updatedAt": "2021-03-19T15:04:18.912Z",
  "networkType": "ethereum",
  "devdoc": {
    "kind": "dev",
    "methods": {
      "approve(address,uint256)": {
        "details": "See {IERC721-approve}."
      },
      "balanceOf(address)": {
        "details": "See {IERC721-balanceOf}."
      },
      "baseURI()": {
        "details": "Returns the base URI set via {_setBaseURI}. This will be automatically added as a prefix in {tokenURI} to each token's URI, or to the token ID if no specific URI is set for that token ID."
      },
      "getApproved(uint256)": {
        "details": "See {IERC721-getApproved}."
      },
      "isApprovedForAll(address,address)": {
        "details": "See {IERC721-isApprovedForAll}."
      },
      "name()": {
        "details": "See {IERC721Metadata-name}."
      },
      "ownerOf(uint256)": {
        "details": "See {IERC721-ownerOf}."
      },
      "safeTransferFrom(address,address,uint256)": {
        "details": "See {IERC721-safeTransferFrom}."
      },
      "safeTransferFrom(address,address,uint256,bytes)": {
        "details": "See {IERC721-safeTransferFrom}."
      },
      "setApprovalForAll(address,bool)": {
        "details": "See {IERC721-setApprovalForAll}."
      },
      "supportsInterface(bytes4)": {
        "details": "See {IERC165-supportsInterface}. Time complexity O(1), guaranteed to always use less than 30 000 gas."
      },
      "symbol()": {
        "details": "See {IERC721Metadata-symbol}."
      },
      "tokenByIndex(uint256)": {
        "details": "See {IERC721Enumerable-tokenByIndex}."
      },
      "tokenOfOwnerByIndex(address,uint256)": {
        "details": "See {IERC721Enumerable-tokenOfOwnerByIndex}."
      },
      "tokenURI(uint256)": {
        "details": "See {IERC721Metadata-tokenURI}."
      },
      "totalSupply()": {
        "details": "See {IERC721Enumerable-totalSupply}."
      },
      "transferFrom(address,address,uint256)": {
        "details": "See {IERC721-transferFrom}."
      }
    },
    "version": 1
  },
  "userdoc": {
    "kind": "user",
    "methods": {},
    "version": 1
  }
}