{
  "contractName": "Francistan",
  "abi": [
    {
      "inputs": [],
      "stateMutability": "nonpayable",
      "type": "constructor"
    },
    {
      "anonymous": false,
      "inputs": [
        {
          "indexed": true,
          "internalType": "address",
          "name": "owner",
          "type": "address"
        },
        {
          "indexed": true,
          "internalType": "address",
          "name": "approved",
          "type": "address"
        },
        {
          "indexed": true,
          "internalType": "uint256",
          "name": "tokenId",
          "type": "uint256"
        }
      ],
      "name": "Approval",
      "type": "event"
    },
    {
      "anonymous": false,
      "inputs": [
        {
          "indexed": true,
          "internalType": "address",
          "name": "owner",
          "type": "address"
        },
        {
          "indexed": true,
          "internalType": "address",
          "name": "operator",
          "type": "address"
        },
        {
          "indexed": false,
          "internalType": "bool",
          "name": "approved",
          "type": "bool"
        }
      ],
      "name": "ApprovalForAll",
      "type": "event"
    },
    {
      "anonymous": false,
      "inputs": [
        {
          "indexed": true,
          "internalType": "address",
          "name": "from",
          "type": "address"
        },
        {
          "indexed": true,
          "internalType": "address",
          "name": "to",
          "type": "address"
        },
        {
          "indexed": true,
          "internalType": "uint256",
          "name": "tokenId",
          "type": "uint256"
        }
      ],
      "name": "Transfer",
      "type": "event"
    },
    {
      "inputs": [
        {
          "internalType": "uint256",
          "name": "",
          "type": "uint256"
        }
      ],
      "name": "animals",
      "outputs": [
        {
          "internalType": "string",
          "name": "feathers",
          "type": "string"
        },
        {
          "internalType": "uint256",
          "name": "weight",
          "type": "uint256"
        },
        {
          "internalType": "uint256",
          "name": "size",
          "type": "uint256"
        },
        {
          "internalType": "uint256",
          "name": "aggressivity",
          "type": "uint256"
        },
        {
          "internalType": "bool",
          "name": "alive",
          "type": "bool"
        }
      ],
      "stateMutability": "view",
      "type": "function",
      "constant": true
    },
    {
      "inputs": [
        {
          "internalType": "address",
          "name": "to",
          "type": "address"
        },
        {
          "internalType": "uint256",
          "name": "tokenId",
          "type": "uint256"
        }
      ],
      "name": "approve",
      "outputs": [],
      "stateMutability": "nonpayable",
      "type": "function"
    },
    {
      "inputs": [
        {
          "internalType": "uint256",
          "name": "",
          "type": "uint256"
        }
      ],
      "name": "auction",
      "outputs": [
        {
          "internalType": "uint256",
          "name": "price",
          "type": "uint256"
        },
        {
          "internalType": "uint256",
          "name": "time",
          "type": "uint256"
        },
        {
          "internalType": "bool",
          "name": "isActive",
          "type": "bool"
        },
        {
          "internalType": "address payable",
          "name": "bidder",
          "type": "address"
        }
      ],
      "stateMutability": "view",
      "type": "function",
      "constant": true
    },
    {
      "inputs": [
        {
          "internalType": "address",
          "name": "owner",
          "type": "address"
        }
      ],
      "name": "balanceOf",
      "outputs": [
        {
          "internalType": "uint256",
          "name": "",
          "type": "uint256"
        }
      ],
      "stateMutability": "view",
      "type": "function",
      "constant": true
    },
    {
      "inputs": [],
      "name": "baseURI",
      "outputs": [
        {
          "internalType": "string",
          "name": "",
          "type": "string"
        }
      ],
      "stateMutability": "view",
      "type": "function",
      "constant": true
    },
    {
      "inputs": [
        {
          "internalType": "address",
          "name": "",
          "type": "address"
        }
      ],
      "name": "breeders",
      "outputs": [
        {
          "internalType": "bool",
          "name": "",
          "type": "bool"
        }
      ],
      "stateMutability": "view",
      "type": "function",
      "constant": true
    },
    {
      "inputs": [
        {
          "internalType": "uint256",
          "name": "",
          "type": "uint256"
        }
      ],
      "name": "fight",
      "outputs": [
        {
          "internalType": "uint256",
          "name": "tokenId",
          "type": "uint256"
        },
        {
          "internalType": "uint256",
          "name": "stake",
          "type": "uint256"
        },
        {
          "internalType": "bool",
          "name": "isActive",
          "type": "bool"
        }
      ],
      "stateMutability": "view",
      "type": "function",
      "constant": true
    },
    {
      "inputs": [
        {
          "internalType": "uint256",
          "name": "tokenId",
          "type": "uint256"
        }
      ],
      "name": "getApproved",
      "outputs": [
        {
          "internalType": "address",
          "name": "",
          "type": "address"
        }
      ],
      "stateMutability": "view",
      "type": "function",
      "constant": true
    },
    {
      "inputs": [
        {
          "internalType": "address",
          "name": "owner",
          "type": "address"
        },
        {
          "internalType": "address",
          "name": "operator",
          "type": "address"
        }
      ],
      "name": "isApprovedForAll",
      "outputs": [
        {
          "internalType": "bool",
          "name": "",
          "type": "bool"
        }
      ],
      "stateMutability": "view",
      "type": "function",
      "constant": true
    },
    {
      "inputs": [],
      "name": "name",
      "outputs": [
        {
          "internalType": "string",
          "name": "",
          "type": "string"
        }
      ],
      "stateMutability": "view",
      "type": "function",
      "constant": true
    },
    {
      "inputs": [
        {
          "internalType": "uint256",
          "name": "tokenId",
          "type": "uint256"
        }
      ],
      "name": "ownerOf",
      "outputs": [
        {
          "internalType": "address",
          "name": "",
          "type": "address"
        }
      ],
      "stateMutability": "view",
      "type": "function",
      "constant": true
    },
    {
      "inputs": [
        {
          "internalType": "address",
          "name": "from",
          "type": "address"
        },
        {
          "internalType": "address",
          "name": "to",
          "type": "address"
        },
        {
          "internalType": "uint256",
          "name": "tokenId",
          "type": "uint256"
        }
      ],
      "name": "safeTransferFrom",
      "outputs": [],
      "stateMutability": "nonpayable",
      "type": "function"
    },
    {
      "inputs": [
        {
          "internalType": "address",
          "name": "from",
          "type": "address"
        },
        {
          "internalType": "address",
          "name": "to",
          "type": "address"
        },
        {
          "internalType": "uint256",
          "name": "tokenId",
          "type": "uint256"
        },
        {
          "internalType": "bytes",
          "name": "_data",
          "type": "bytes"
        }
      ],
      "name": "safeTransferFrom",
      "outputs": [],
      "stateMutability": "nonpayable",
      "type": "function"
    },
    {
      "inputs": [
        {
          "internalType": "address",
          "name": "operator",
          "type": "address"
        },
        {
          "internalType": "bool",
          "name": "approved",
          "type": "bool"
        }
      ],
      "name": "setApprovalForAll",
      "outputs": [],
      "stateMutability": "nonpayable",
      "type": "function"
    },
    {
      "inputs": [
        {
          "internalType": "bytes4",
          "name": "interfaceId",
          "type": "bytes4"
        }
      ],
      "name": "supportsInterface",
      "outputs": [
        {
          "internalType": "bool",
          "name": "",
          "type": "bool"
        }
      ],
      "stateMutability": "view",
      "type": "function",
      "constant": true
    },
    {
      "inputs": [],
      "name": "symbol",
      "outputs": [
        {
          "internalType": "string",
          "name": "",
          "type": "string"
        }
      ],
      "stateMutability": "view",
      "type": "function",
      "constant": true
    },
    {
      "inputs": [
        {
          "internalType": "uint256",
          "name": "index",
          "type": "uint256"
        }
      ],
      "name": "tokenByIndex",
      "outputs": [
        {
          "internalType": "uint256",
          "name": "",
          "type": "uint256"
        }
      ],
      "stateMutability": "view",
      "type": "function",
      "constant": true
    },
    {
      "inputs": [
        {
          "internalType": "address",
          "name": "owner",
          "type": "address"
        },
        {
          "internalType": "uint256",
          "name": "index",
          "type": "uint256"
        }
      ],
      "name": "tokenOfOwnerByIndex",
      "outputs": [
        {
          "internalType": "uint256",
          "name": "",
          "type": "uint256"
        }
      ],
      "stateMutability": "view",
      "type": "function",
      "constant": true
    },
    {
      "inputs": [
        {
          "internalType": "uint256",
          "name": "tokenId",
          "type": "uint256"
        }
      ],
      "name": "tokenURI",
      "outputs": [
        {
          "internalType": "string",
          "name": "",
          "type": "string"
        }
      ],
      "stateMutability": "view",
      "type": "function",
      "constant": true
    },
    {
      "inputs": [],
      "name": "totalSupply",
      "outputs": [
        {
          "internalType": "uint256",
          "name": "",
          "type": "uint256"
        }
      ],
      "stateMutability": "view",
      "type": "function",
      "constant": true
    },
    {
      "inputs": [
        {
          "internalType": "address",
          "name": "from",
          "type": "address"
        },
        {
          "internalType": "address",
          "name": "to",
          "type": "address"
        },
        {
          "internalType": "uint256",
          "name": "tokenId",
          "type": "uint256"
        }
      ],
      "name": "transferFrom",
      "outputs": [],
      "stateMutability": "nonpayable",
      "type": "function"
    },
    {
      "inputs": [
        {
          "internalType": "address",
          "name": "breeder",
          "type": "address"
        }
      ],
      "name": "registerBreeder",
      "outputs": [],
      "stateMutability": "nonpayable",
      "type": "function"
    },
    {
      "inputs": [
        {
          "internalType": "address",
          "name": "breeder",
          "type": "address"
        },
        {
          "internalType": "string",
          "name": "feathers",
          "type": "string"
        },
        {
          "internalType": "uint256",
          "name": "weight",
          "type": "uint256"
        },
        {
          "internalType": "uint256",
          "name": "size",
          "type": "uint256"
        },
        {
          "internalType": "uint256",
          "name": "aggressivity",
          "type": "uint256"
        }
      ],
      "name": "declareAnimal",
      "outputs": [
        {
          "internalType": "uint256",
          "name": "",
          "type": "uint256"
        }
      ],
      "stateMutability": "nonpayable",
      "type": "function"
    },
    {
      "inputs": [
        {
          "internalType": "uint256",
          "name": "tokenId",
          "type": "uint256"
        }
      ],
      "name": "deadAnimal",
      "outputs": [],
      "stateMutability": "nonpayable",
      "type": "function"
    },
    {
      "inputs": [
        {
          "internalType": "uint256",
          "name": "tokenId1",
          "type": "uint256"
        },
        {
          "internalType": "uint256",
          "name": "tokenId2",
          "type": "uint256"
        }
      ],
      "name": "breedAnimal",
      "outputs": [],
      "stateMutability": "nonpayable",
      "type": "function"
    },
    {
      "inputs": [
        {
          "internalType": "uint256",
          "name": "price",
          "type": "uint256"
        },
        {
          "internalType": "uint256",
          "name": "tokenId",
          "type": "uint256"
        }
      ],
      "name": "createAuction",
      "outputs": [],
      "stateMutability": "nonpayable",
      "type": "function"
    },
    {
      "inputs": [
        {
          "internalType": "uint256",
          "name": "tokenId",
          "type": "uint256"
        }
      ],
      "name": "bidOnAuction",
      "outputs": [],
      "stateMutability": "payable",
      "type": "function",
      "payable": true
    },
    {
      "inputs": [
        {
          "internalType": "uint256",
          "name": "tokenId",
          "type": "uint256"
        }
      ],
      "name": "acceptAuction",
      "outputs": [],
      "stateMutability": "nonpayable",
      "type": "function"
    },
    {
      "inputs": [
        {
          "internalType": "uint256",
          "name": "tokenId",
          "type": "uint256"
        }
      ],
      "name": "claimAuction",
      "outputs": [],
      "stateMutability": "nonpayable",
      "type": "function"
    },
    {
      "inputs": [
        {
          "internalType": "uint256",
          "name": "tokenId",
          "type": "uint256"
        }
      ],
      "name": "proposeFight",
      "outputs": [],
      "stateMutability": "payable",
      "type": "function",
      "payable": true
    },
    {
      "inputs": [
        {
          "internalType": "uint256",
          "name": "otherTokenId",
          "type": "uint256"
        },
        {
          "internalType": "uint256",
          "name": "yourTokenId",
          "type": "uint256"
        }
      ],
      "name": "agreeToFight",
      "outputs": [],
      "stateMutability": "payable",
      "type": "function",
      "payable": true
    }
  ],
  "bytecode": "0x60806040526000600a5560006010553480156200001b57600080fd5b506040518060400160405280600a81526020017f4672616e63697374616e000000000000000000000000000000000000000000008152506040518060400160405280600381526020017f436f710000000000000000000000000000000000000000000000000000000000815250620000a06301ffc9a760e01b6200016360201b60201c565b8160069080519060200190620000b89291906200026c565b508060079080519060200190620000d19291906200026c565b50620000ea6380ac58cd60e01b6200016360201b60201c565b62000102635b5e139f60e01b6200016360201b60201c565b6200011a63780e9d6360e01b6200016360201b60201c565b505033600f60006101000a81548173ffffffffffffffffffffffffffffffffffffffff021916908373ffffffffffffffffffffffffffffffffffffffff16021790555062000322565b63ffffffff60e01b817bffffffffffffffffffffffffffffffffffffffffffffffffffffffff1916141562000200576040517f08c379a000000000000000000000000000000000000000000000000000000000815260040180806020018281038252601c8152602001807f4552433136353a20696e76616c696420696e746572666163652069640000000081525060200191505060405180910390fd5b6001600080837bffffffffffffffffffffffffffffffffffffffffffffffffffffffff19167bffffffffffffffffffffffffffffffffffffffffffffffffffffffff1916815260200190815260200160002060006101000a81548160ff02191690831515021790555050565b828054600181600116156101000203166002900490600052602060002090601f016020900481019282620002a45760008555620002f0565b82601f10620002bf57805160ff1916838001178555620002f0565b82800160010185558215620002f0579182015b82811115620002ef578251825591602001919060010190620002d2565b5b509050620002ff919062000303565b5090565b5b808211156200031e57600081600090555060010162000304565b5090565b6144c180620003326000396000f3fe6080604052600436106101d85760003560e01c80636352211e11610102578063b88d4fde11610095578063df6a37aa11610064578063df6a37aa14610e02578063e985e9c514610e61578063ec9b6db914610ee8578063ef108af714610f23576101d8565b8063b88d4fde14610aea578063c1722d2b14610bfc578063c87b56dd14610c34578063db42ef3014610ce8576101d8565b806395d89b41116100d157806395d89b41146108f0578063998dd3ca146109805780639aafc6c914610a52578063a22cb46514610a8d576101d8565b80636352211e146107685780636c0360eb146107cd5780636d4fdc511461085d57806370a082311461088b576101d8565b8063229fbb561161017a57806342842e0e1161014957806342842e0e14610608578063476fd474146106835780634f6ccce7146106d45780635e6bab6814610723576101d8565b8063229fbb561461048957806323b872dd146104f057806326b7aeea1461056b5780632f745c5914610599576101d8565b8063081812fc116101b6578063081812fc14610322578063095ea7b3146103875780631200617f146103e257806318160ddd1461045e576101d8565b80630121683f146101dd57806301ffc9a71461022257806306fdde0314610292575b600080fd5b3480156101e957600080fd5b506102206004803603604081101561020057600080fd5b810190808035906020019092919080359060200190929190505050610f5e565b005b34801561022e57600080fd5b5061027a6004803603602081101561024557600080fd5b8101908080357bffffffffffffffffffffffffffffffffffffffffffffffffffffffff191690602001909291905050506110f7565b60405180821515815260200191505060405180910390f35b34801561029e57600080fd5b506102a761115e565b6040518080602001828103825283818151815260200191508051906020019080838360005b838110156102e75780820151818401526020810190506102cc565b50505050905090810190601f1680156103145780820380516001836020036101000a031916815260200191505b509250505060405180910390f35b34801561032e57600080fd5b5061035b6004803603602081101561034557600080fd5b8101908080359060200190929190505050611200565b604051808273ffffffffffffffffffffffffffffffffffffffff16815260200191505060405180910390f35b34801561039357600080fd5b506103e0600480360360408110156103aa57600080fd5b81019080803573ffffffffffffffffffffffffffffffffffffffff1690602001909291908035906020019092919050505061129b565b005b3480156103ee57600080fd5b5061041b6004803603602081101561040557600080fd5b81019080803590602001909291905050506113df565b6040518085815260200184815260200183151581526020018273ffffffffffffffffffffffffffffffffffffffff16815260200194505050505060405180910390f35b34801561046a57600080fd5b5061047361143c565b6040518082815260200191505060405180910390f35b34801561049557600080fd5b506104d8600480360360208110156104ac57600080fd5b81019080803573ffffffffffffffffffffffffffffffffffffffff16906020019092919050505061144d565b60405180821515815260200191505060405180910390f35b3480156104fc57600080fd5b506105696004803603606081101561051357600080fd5b81019080803573ffffffffffffffffffffffffffffffffffffffff169060200190929190803573ffffffffffffffffffffffffffffffffffffffff1690602001909291908035906020019092919050505061146d565b005b6105976004803603602081101561058157600080fd5b81019080803590602001909291905050506114e3565b005b3480156105a557600080fd5b506105f2600480360360408110156105bc57600080fd5b81019080803573ffffffffffffffffffffffffffffffffffffffff16906020019092919080359060200190929190505050611722565b6040518082815260200191505060405180910390f35b34801561061457600080fd5b506106816004803603606081101561062b57600080fd5b81019080803573ffffffffffffffffffffffffffffffffffffffff169060200190929190803573ffffffffffffffffffffffffffffffffffffffff1690602001909291908035906020019092919050505061177d565b005b34801561068f57600080fd5b506106d2600480360360208110156106a657600080fd5b81019080803573ffffffffffffffffffffffffffffffffffffffff16906020019092919050505061179d565b005b3480156106e057600080fd5b5061070d600480360360208110156106f757600080fd5b8101908080359060200190929190505050611852565b6040518082815260200191505060405180910390f35b34801561072f57600080fd5b506107666004803603604081101561074657600080fd5b810190808035906020019092919080359060200190929190505050611875565b005b34801561077457600080fd5b506107a16004803603602081101561078b57600080fd5b8101908080359060200190929190505050611b28565b604051808273ffffffffffffffffffffffffffffffffffffffff16815260200191505060405180910390f35b3480156107d957600080fd5b506107e2611b5f565b6040518080602001828103825283818151815260200191508051906020019080838360005b83811015610822578082015181840152602081019050610807565b50505050905090810190601f16801561084f5780820380516001836020036101000a031916815260200191505b509250505060405180910390f35b6108896004803603602081101561087357600080fd5b8101908080359060200190929190505050611c01565b005b34801561089757600080fd5b506108da600480360360208110156108ae57600080fd5b81019080803573ffffffffffffffffffffffffffffffffffffffff169060200190929190505050611d31565b6040518082815260200191505060405180910390f35b3480156108fc57600080fd5b50610905611e06565b6040518080602001828103825283818151815260200191508051906020019080838360005b8381101561094557808201518184015260208101905061092a565b50505050905090810190601f1680156109725780820380516001836020036101000a031916815260200191505b509250505060405180910390f35b34801561098c57600080fd5b506109b9600480360360208110156109a357600080fd5b8101908080359060200190929190505050611ea8565b60405180806020018681526020018581526020018481526020018315158152602001828103825287818151815260200191508051906020019080838360005b83811015610a135780820151818401526020810190506109f8565b50505050905090810190601f168015610a405780820380516001836020036101000a031916815260200191505b50965050505050505060405180910390f35b348015610a5e57600080fd5b50610a8b60048036036020811015610a7557600080fd5b8101908080359060200190929190505050611f83565b005b348015610a9957600080fd5b50610ae860048036036040811015610ab057600080fd5b81019080803573ffffffffffffffffffffffffffffffffffffffff1690602001909291908035151590602001909291905050506120c1565b005b348015610af657600080fd5b50610bfa60048036036080811015610b0d57600080fd5b81019080803573ffffffffffffffffffffffffffffffffffffffff169060200190929190803573ffffffffffffffffffffffffffffffffffffffff1690602001909291908035906020019092919080359060200190640100000000811115610b7457600080fd5b820183602082011115610b8657600080fd5b80359060200191846001830284011164010000000083111715610ba857600080fd5b91908080601f016020809104026020016040519081016040528093929190818152602001838380828437600081840152601f19601f820116905080830192505050505050509192919290505050612277565b005b610c3260048036036040811015610c1257600080fd5b8101908080359060200190929190803590602001909291905050506122ef565b005b348015610c4057600080fd5b50610c6d60048036036020811015610c5757600080fd5b8101908080359060200190929190505050612503565b6040518080602001828103825283818151815260200191508051906020019080838360005b83811015610cad578082015181840152602081019050610c92565b50505050905090810190601f168015610cda5780820380516001836020036101000a031916815260200191505b509250505060405180910390f35b348015610cf457600080fd5b50610dec600480360360a0811015610d0b57600080fd5b81019080803573ffffffffffffffffffffffffffffffffffffffff16906020019092919080359060200190640100000000811115610d4857600080fd5b820183602082011115610d5a57600080fd5b80359060200191846001830284011164010000000083111715610d7c57600080fd5b91908080601f016020809104026020016040519081016040528093929190818152602001838380828437600081840152601f19601f8201169050808301925050505050505091929192908035906020019092919080359060200190929190803590602001909291905050506127d4565b6040518082815260200191505060405180910390f35b348015610e0e57600080fd5b50610e3b60048036036020811015610e2557600080fd5b8101908080359060200190929190505050612910565b604051808481526020018381526020018215158152602001935050505060405180910390f35b348015610e6d57600080fd5b50610ed060048036036040811015610e8457600080fd5b81019080803573ffffffffffffffffffffffffffffffffffffffff169060200190929190803573ffffffffffffffffffffffffffffffffffffffff169060200190929190505050612947565b60405180821515815260200191505060405180910390f35b348015610ef457600080fd5b50610f2160048036036020811015610f0b57600080fd5b81019080803590602001909291905050506129db565b005b348015610f2f57600080fd5b50610f5c60048036036020811015610f4657600080fd5b8101908080359060200190929190505050612adb565b005b600b60003373ffffffffffffffffffffffffffffffffffffffff1673ffffffffffffffffffffffffffffffffffffffff16815260200190815260200160002060009054906101000a900460ff16610fb457600080fd5b80600e600082815260200190815260200160002060040160009054906101000a900460ff16610fe257600080fd5b610feb82611b28565b73ffffffffffffffffffffffffffffffffffffffff163373ffffffffffffffffffffffffffffffffffffffff161461102257600080fd5b60405180608001604052808481526020016202a300420181526020016001151581526020013373ffffffffffffffffffffffffffffffffffffffff16815250600c6000848152602001908152602001600020600082015181600001556020820151816001015560408201518160020160006101000a81548160ff02191690831515021790555060608201518160020160016101000a81548173ffffffffffffffffffffffffffffffffffffffff021916908373ffffffffffffffffffffffffffffffffffffffff160217905550905050505050565b6000806000837bffffffffffffffffffffffffffffffffffffffffffffffffffffffff19167bffffffffffffffffffffffffffffffffffffffffffffffffffffffff1916815260200190815260200160002060009054906101000a900460ff169050919050565b606060068054600181600116156101000203166002900480601f0160208091040260200160405190810160405280929190818152602001828054600181600116156101000203166002900480156111f65780601f106111cb576101008083540402835291602001916111f6565b820191906000526020600020905b8154815290600101906020018083116111d957829003601f168201915b5050505050905090565b600061120b82612b70565b611260576040517f08c379a000000000000000000000000000000000000000000000000000000000815260040180806020018281038252602c81526020018061438a602c913960400191505060405180910390fd5b6004600083815260200190815260200160002060009054906101000a900473ffffffffffffffffffffffffffffffffffffffff169050919050565b60006112a682611b28565b90508073ffffffffffffffffffffffffffffffffffffffff168373ffffffffffffffffffffffffffffffffffffffff16141561132d576040517f08c379a000000000000000000000000000000000000000000000000000000000815260040180806020018281038252602181526020018061443a6021913960400191505060405180910390fd5b8073ffffffffffffffffffffffffffffffffffffffff1661134c612b8d565b73ffffffffffffffffffffffffffffffffffffffff16148061137b575061137a81611375612b8d565b612947565b5b6113d0576040517f08c379a00000000000000000000000000000000000000000000000000000000081526004018080602001828103825260388152602001806142dd6038913960400191505060405180910390fd5b6113da8383612b95565b505050565b600c6020528060005260406000206000915090508060000154908060010154908060020160009054906101000a900460ff16908060020160019054906101000a900473ffffffffffffffffffffffffffffffffffffffff16905084565b60006114486002612c4e565b905090565b600b6020528060005260406000206000915054906101000a900460ff1681565b61147e611478612b8d565b82612c63565b6114d3576040517f08c379a000000000000000000000000000000000000000000000000000000000815260040180806020018281038252603181526020018061445b6031913960400191505060405180910390fd5b6114de838383612d57565b505050565b600b60003373ffffffffffffffffffffffffffffffffffffffff1673ffffffffffffffffffffffffffffffffffffffff16815260200190815260200160002060009054906101000a900460ff1661153957600080fd5b42600c6000838152602001908152602001600020600101541161155b57600080fd5b34600c6000838152602001908152602001600020600001541061157d57600080fd5b600c600082815260200190815260200160002060020160009054906101000a900460ff166115aa57600080fd5b6115b381611b28565b73ffffffffffffffffffffffffffffffffffffffff16600c600083815260200190815260200160002060020160019054906101000a900473ffffffffffffffffffffffffffffffffffffffff1673ffffffffffffffffffffffffffffffffffffffff16146116af57600c600082815260200190815260200160002060020160019054906101000a900473ffffffffffffffffffffffffffffffffffffffff1673ffffffffffffffffffffffffffffffffffffffff166108fc600c6000848152602001908152602001600020600001549081150290604051600060405180830381858888f193505050501580156116ad573d6000803e3d6000fd5b505b34600c60008381526020019081526020016000206000018190555033600c600083815260200190815260200160002060020160016101000a81548173ffffffffffffffffffffffffffffffffffffffff021916908373ffffffffffffffffffffffffffffffffffffffff16021790555050565b600061177582600160008673ffffffffffffffffffffffffffffffffffffffff1673ffffffffffffffffffffffffffffffffffffffff168152602001908152602001600020612f9a90919063ffffffff16565b905092915050565b61179883838360405180602001604052806000815250612277565b505050565b600f60009054906101000a900473ffffffffffffffffffffffffffffffffffffffff1673ffffffffffffffffffffffffffffffffffffffff163373ffffffffffffffffffffffffffffffffffffffff16146117f757600080fd5b6001600b60008373ffffffffffffffffffffffffffffffffffffffff1673ffffffffffffffffffffffffffffffffffffffff16815260200190815260200160002060006101000a81548160ff02191690831515021790555050565b600080611869836002612fb490919063ffffffff16565b50905080915050919050565b600b60003373ffffffffffffffffffffffffffffffffffffffff1673ffffffffffffffffffffffffffffffffffffffff16815260200190815260200160002060009054906101000a900460ff166118cb57600080fd5b81600e600082815260200190815260200160002060040160009054906101000a900460ff166118f957600080fd5b81600e600082815260200190815260200160002060040160009054906101000a900460ff1661192757600080fd5b61193084611b28565b73ffffffffffffffffffffffffffffffffffffffff163373ffffffffffffffffffffffffffffffffffffffff1614801561199d575061196e83611b28565b73ffffffffffffffffffffffffffffffffffffffff163373ffffffffffffffffffffffffffffffffffffffff16145b6119a657600080fd5b6000600e60008581526020019081526020016000206000018054600181600116156101000203166002900480601f016020809104026020016040519081016040528092919081815260200182805460018160011615610100020316600290048015611a525780601f10611a2757610100808354040283529160200191611a52565b820191906000526020600020905b815481529060010190602001808311611a3557829003601f168201915b5050505050905060006002600e600087815260200190815260200160002060010154600e6000898152602001908152602001600020600101540181611a9357fe5b04905060006002600e600088815260200190815260200160002060020154600e60008a8152602001908152602001600020600201540181611ad057fe5b04905060006002600e600089815260200190815260200160002060030154600e60008b8152602001908152602001600020600301540181611b0d57fe5b049050611b1d33858585856127d4565b505050505050505050565b6000611b588260405180606001604052806029815260200161433f602991396002612fe09092919063ffffffff16565b9050919050565b606060098054600181600116156101000203166002900480601f016020809104026020016040519081016040528092919081815260200182805460018160011615610100020316600290048015611bf75780601f10611bcc57610100808354040283529160200191611bf7565b820191906000526020600020905b815481529060010190602001808311611bda57829003601f168201915b5050505050905090565b600b60003373ffffffffffffffffffffffffffffffffffffffff1673ffffffffffffffffffffffffffffffffffffffff16815260200190815260200160002060009054906101000a900460ff16611c5757600080fd5b80600e600082815260200190815260200160002060040160009054906101000a900460ff16611c8557600080fd5b3373ffffffffffffffffffffffffffffffffffffffff16611ca583611b28565b73ffffffffffffffffffffffffffffffffffffffff1614611cc557600080fd5b604051806060016040528083815260200134815260200160011515815250600d6000848152602001908152602001600020600082015181600001556020820151816001015560408201518160020160006101000a81548160ff0219169083151502179055509050505050565b60008073ffffffffffffffffffffffffffffffffffffffff168273ffffffffffffffffffffffffffffffffffffffff161415611db8576040517f08c379a000000000000000000000000000000000000000000000000000000000815260040180806020018281038252602a815260200180614315602a913960400191505060405180910390fd5b611dff600160008473ffffffffffffffffffffffffffffffffffffffff1673ffffffffffffffffffffffffffffffffffffffff168152602001908152602001600020612fff565b9050919050565b606060078054600181600116156101000203166002900480601f016020809104026020016040519081016040528092919081815260200182805460018160011615610100020316600290048015611e9e5780601f10611e7357610100808354040283529160200191611e9e565b820191906000526020600020905b815481529060010190602001808311611e8157829003601f168201915b5050505050905090565b600e602052806000526040600020600091509050806000018054600181600116156101000203166002900480601f016020809104026020016040519081016040528092919081815260200182805460018160011615610100020316600290048015611f545780601f10611f2957610100808354040283529160200191611f54565b820191906000526020600020905b815481529060010190602001808311611f3757829003601f168201915b5050505050908060010154908060020154908060030154908060040160009054906101000a900460ff16905085565b600b60003373ffffffffffffffffffffffffffffffffffffffff1673ffffffffffffffffffffffffffffffffffffffff16815260200190815260200160002060009054906101000a900460ff16611fd957600080fd5b600c600082815260200190815260200160002060020160019054906101000a900473ffffffffffffffffffffffffffffffffffffffff1673ffffffffffffffffffffffffffffffffffffffff163373ffffffffffffffffffffffffffffffffffffffff161461204757600080fd5b600c600082815260200190815260200160002060020160009054906101000a900460ff161561207557600080fd5b6120be61208182611b28565b600c600084815260200190815260200160002060020160019054906101000a900473ffffffffffffffffffffffffffffffffffffffff168361146d565b50565b6120c9612b8d565b73ffffffffffffffffffffffffffffffffffffffff168273ffffffffffffffffffffffffffffffffffffffff16141561216a576040517f08c379a00000000000000000000000000000000000000000000000000000000081526004018080602001828103825260198152602001807f4552433732313a20617070726f766520746f2063616c6c65720000000000000081525060200191505060405180910390fd5b8060056000612177612b8d565b73ffffffffffffffffffffffffffffffffffffffff1673ffffffffffffffffffffffffffffffffffffffff16815260200190815260200160002060008473ffffffffffffffffffffffffffffffffffffffff1673ffffffffffffffffffffffffffffffffffffffff16815260200190815260200160002060006101000a81548160ff0219169083151502179055508173ffffffffffffffffffffffffffffffffffffffff16612224612b8d565b73ffffffffffffffffffffffffffffffffffffffff167f17307eab39ab6107e8899845ad3d59bd9653f200f220920489ca2b5937696c318360405180821515815260200191505060405180910390a35050565b612288612282612b8d565b83612c63565b6122dd576040517f08c379a000000000000000000000000000000000000000000000000000000000815260040180806020018281038252603181526020018061445b6031913960400191505060405180910390fd5b6122e984848484613014565b50505050565b600b60003373ffffffffffffffffffffffffffffffffffffffff1673ffffffffffffffffffffffffffffffffffffffff16815260200190815260200160002060009054906101000a900460ff1661234557600080fd5b80600e600082815260200190815260200160002060040160009054906101000a900460ff1661237357600080fd5b600d600084815260200190815260200160002060010154341461239557600080fd5b818314156123a257600080fd5b81600d60008581526020019081526020016000206000018190555060006123f6600e600085815260200190815260200160002060030154600e60008781526020019081526020016000206003015401613086565b9050600e600085815260200190815260200160002060030154811161248b5761241e84611b28565b73ffffffffffffffffffffffffffffffffffffffff166108fc6002600d600088815260200190815260200160002060010154029081150290604051600060405180830381858888f1935050505015801561247c573d6000803e3d6000fd5b50612486846129db565b6124fd565b61249483611b28565b73ffffffffffffffffffffffffffffffffffffffff166108fc6002600d600088815260200190815260200160002060010154029081150290604051600060405180830381858888f193505050501580156124f2573d6000803e3d6000fd5b506124fc836129db565b5b50505050565b606061250e82612b70565b612563576040517f08c379a000000000000000000000000000000000000000000000000000000000815260040180806020018281038252602f81526020018061440b602f913960400191505060405180910390fd5b6000600860008481526020019081526020016000208054600181600116156101000203166002900480601f01602080910402602001604051908101604052809291908181526020018280546001816001161561010002031660029004801561260c5780601f106125e15761010080835404028352916020019161260c565b820191906000526020600020905b8154815290600101906020018083116125ef57829003601f168201915b50505050509050600061261d611b5f565b90506000815114156126335781925050506127cf565b6000825111156127045780826040516020018083805190602001908083835b602083106126755780518252602082019150602081019050602083039250612652565b6001836020036101000a03801982511681845116808217855250505050505090500182805190602001908083835b602083106126c657805182526020820191506020810190506020830392506126a3565b6001836020036101000a03801982511681845116808217855250505050505090500192505050604051602081830303815290604052925050506127cf565b8061270e856130ff565b6040516020018083805190602001908083835b602083106127445780518252602082019150602081019050602083039250612721565b6001836020036101000a03801982511681845116808217855250505050505090500182805190602001908083835b602083106127955780518252602082019150602081019050602083039250612772565b6001836020036101000a03801982511681845116808217855250505050505090500192505050604051602081830303815290604052925050505b919050565b6000600b60003373ffffffffffffffffffffffffffffffffffffffff1673ffffffffffffffffffffffffffffffffffffffff16815260200190815260200160002060009054906101000a900460ff1661282c57600080fd5b600a600081548092919060010191905055506000600a54905061284f8782613246565b6040518060a0016040528087815260200186815260200185815260200184815260200160011515815250600e600083815260200190815260200160002060008201518160000190805190602001906128a892919061411f565b5060208201518160010155604082015181600201556060820151816003015560808201518160040160006101000a81548160ff021916908315150217905550905050612903816040518060200160405280600081525061343a565b8091505095945050505050565b600d6020528060005260406000206000915090508060000154908060010154908060020160009054906101000a900460ff16905083565b6000600560008473ffffffffffffffffffffffffffffffffffffffff1673ffffffffffffffffffffffffffffffffffffffff16815260200190815260200160002060008373ffffffffffffffffffffffffffffffffffffffff1673ffffffffffffffffffffffffffffffffffffffff16815260200190815260200160002060009054906101000a900460ff16905092915050565b600b60003373ffffffffffffffffffffffffffffffffffffffff1673ffffffffffffffffffffffffffffffffffffffff16815260200190815260200160002060009054906101000a900460ff16612a3157600080fd5b80600e600082815260200190815260200160002060040160009054906101000a900460ff16612a5f57600080fd5b612a6882611b28565b73ffffffffffffffffffffffffffffffffffffffff163373ffffffffffffffffffffffffffffffffffffffff1614612a9f57600080fd5b6000600e600084815260200190815260200160002060040160006101000a81548160ff021916908315150217905550612ad7826134c4565b5050565b612b1b600c600083815260200190815260200160002060020160019054906101000a900473ffffffffffffffffffffffffffffffffffffffff168261129b565b42600c6000838152602001908152602001600020600101541115612b3e57600080fd5b6000600c600083815260200190815260200160002060020160006101000a81548160ff02191690831515021790555050565b6000612b868260026135fe90919063ffffffff16565b9050919050565b600033905090565b816004600083815260200190815260200160002060006101000a81548173ffffffffffffffffffffffffffffffffffffffff021916908373ffffffffffffffffffffffffffffffffffffffff160217905550808273ffffffffffffffffffffffffffffffffffffffff16612c0883611b28565b73ffffffffffffffffffffffffffffffffffffffff167f8c5be1e5ebec7d5bd14f71427d1e84f3dd0314c0f7b2291e5b200ac8c7c3b92560405160405180910390a45050565b6000612c5c82600001613618565b9050919050565b6000612c6e82612b70565b612cc3576040517f08c379a000000000000000000000000000000000000000000000000000000000815260040180806020018281038252602c8152602001806142b1602c913960400191505060405180910390fd5b6000612cce83611b28565b90508073ffffffffffffffffffffffffffffffffffffffff168473ffffffffffffffffffffffffffffffffffffffff161480612d3d57508373ffffffffffffffffffffffffffffffffffffffff16612d2584611200565b73ffffffffffffffffffffffffffffffffffffffff16145b80612d4e5750612d4d8185612947565b5b91505092915050565b8273ffffffffffffffffffffffffffffffffffffffff16612d7782611b28565b73ffffffffffffffffffffffffffffffffffffffff1614612de3576040517f08c379a00000000000000000000000000000000000000000000000000000000081526004018080602001828103825260298152602001806143e26029913960400191505060405180910390fd5b600073ffffffffffffffffffffffffffffffffffffffff168273ffffffffffffffffffffffffffffffffffffffff161415612e69576040517f08c379a00000000000000000000000000000000000000000000000000000000081526004018080602001828103825260248152602001806142676024913960400191505060405180910390fd5b612e74838383613629565b612e7f600082612b95565b612ed081600160008673ffffffffffffffffffffffffffffffffffffffff1673ffffffffffffffffffffffffffffffffffffffff16815260200190815260200160002061362e90919063ffffffff16565b50612f2281600160008573ffffffffffffffffffffffffffffffffffffffff1673ffffffffffffffffffffffffffffffffffffffff16815260200190815260200160002061364890919063ffffffff16565b50612f39818360026136629092919063ffffffff16565b50808273ffffffffffffffffffffffffffffffffffffffff168473ffffffffffffffffffffffffffffffffffffffff167fddf252ad1be2c89b69c2b068fc378daa952ba7f163c4a11628f55a4df523b3ef60405160405180910390a4505050565b6000612fa98360000183613697565b60001c905092915050565b600080600080612fc7866000018661371a565b915091508160001c8160001c9350935050509250929050565b6000612ff3846000018460001b846137b3565b60001c90509392505050565b600061300d826000016138a9565b9050919050565b61301f848484612d57565b61302b848484846138ba565b613080576040517f08c379a00000000000000000000000000000000000000000000000000000000081526004018080602001828103825260328152602001806142356032913960400191505060405180910390fd5b50505050565b6000601060008154809291906001019190505550814233601054604051602001808481526020018373ffffffffffffffffffffffffffffffffffffffff1660601b815260140182815260200193505050506040516020818303038152906040528051906020012060001c816130f757fe5b069050919050565b60606000821415613147576040518060400160405280600181526020017f30000000000000000000000000000000000000000000000000000000000000008152509050613241565b600082905060005b60008214613171578080600101915050600a828161316957fe5b04915061314f565b60008167ffffffffffffffff8111801561318a57600080fd5b506040519080825280601f01601f1916602001820160405280156131bd5781602001600182028036833780820191505090505b50905060006001830390508593505b6000841461323957600a84816131de57fe5b0660300160f81b828280600190039350815181106131f857fe5b60200101907effffffffffffffffffffffffffffffffffffffffffffffffffffffffffffff1916908160001a905350600a848161323157fe5b0493506131cc565b819450505050505b919050565b600073ffffffffffffffffffffffffffffffffffffffff168273ffffffffffffffffffffffffffffffffffffffff1614156132e9576040517f08c379a00000000000000000000000000000000000000000000000000000000081526004018080602001828103825260208152602001807f4552433732313a206d696e7420746f20746865207a65726f206164647265737381525060200191505060405180910390fd5b6132f281612b70565b15613365576040517f08c379a000000000000000000000000000000000000000000000000000000000815260040180806020018281038252601c8152602001807f4552433732313a20746f6b656e20616c7265616479206d696e7465640000000081525060200191505060405180910390fd5b61337160008383613629565b6133c281600160008573ffffffffffffffffffffffffffffffffffffffff1673ffffffffffffffffffffffffffffffffffffffff16815260200190815260200160002061364890919063ffffffff16565b506133d9818360026136629092919063ffffffff16565b50808273ffffffffffffffffffffffffffffffffffffffff16600073ffffffffffffffffffffffffffffffffffffffff167fddf252ad1be2c89b69c2b068fc378daa952ba7f163c4a11628f55a4df523b3ef60405160405180910390a45050565b61344382612b70565b613498576040517f08c379a000000000000000000000000000000000000000000000000000000000815260040180806020018281038252602c8152602001806143b6602c913960400191505060405180910390fd5b806008600084815260200190815260200160002090805190602001906134bf92919061411f565b505050565b60006134cf82611b28565b90506134dd81600084613629565b6134e8600083612b95565b600060086000848152602001908152602001600020805460018160011615610100020316600290049050146135375760086000838152602001908152602001600020600061353691906141ad565b5b61358882600160008473ffffffffffffffffffffffffffffffffffffffff1673ffffffffffffffffffffffffffffffffffffffff16815260200190815260200160002061362e90919063ffffffff16565b5061359d826002613ad390919063ffffffff16565b5081600073ffffffffffffffffffffffffffffffffffffffff168273ffffffffffffffffffffffffffffffffffffffff167fddf252ad1be2c89b69c2b068fc378daa952ba7f163c4a11628f55a4df523b3ef60405160405180910390a45050565b6000613610836000018360001b613aed565b905092915050565b600081600001805490509050919050565b505050565b6000613640836000018360001b613b10565b905092915050565b600061365a836000018360001b613bf8565b905092915050565b600061368e846000018460001b8473ffffffffffffffffffffffffffffffffffffffff1660001b613c68565b90509392505050565b6000818360000180549050116136f8576040517f08c379a00000000000000000000000000000000000000000000000000000000081526004018080602001828103825260228152602001806142136022913960400191505060405180910390fd5b82600001828154811061370757fe5b9060005260206000200154905092915050565b6000808284600001805490501161377c576040517f08c379a00000000000000000000000000000000000000000000000000000000081526004018080602001828103825260228152602001806143686022913960400191505060405180910390fd5b600084600001848154811061378d57fe5b906000526020600020906002020190508060000154816001015492509250509250929050565b6000808460010160008581526020019081526020016000205490506000811415839061387a576040517f08c379a00000000000000000000000000000000000000000000000000000000081526004018080602001828103825283818151815260200191508051906020019080838360005b8381101561383f578082015181840152602081019050613824565b50505050905090810190601f16801561386c5780820380516001836020036101000a031916815260200191505b509250505060405180910390fd5b5084600001600182038154811061388d57fe5b9060005260206000209060020201600101549150509392505050565b600081600001805490509050919050565b60006138db8473ffffffffffffffffffffffffffffffffffffffff16613d44565b6138e85760019050613acb565b6000613a5263150b7a0260e01b6138fd612b8d565b888787604051602401808573ffffffffffffffffffffffffffffffffffffffff1681526020018473ffffffffffffffffffffffffffffffffffffffff16815260200183815260200180602001828103825283818151815260200191508051906020019080838360005b83811015613981578082015181840152602081019050613966565b50505050905090810190601f1680156139ae5780820380516001836020036101000a031916815260200191505b5095505050505050604051602081830303815290604052907bffffffffffffffffffffffffffffffffffffffffffffffffffffffff19166020820180517bffffffffffffffffffffffffffffffffffffffffffffffffffffffff8381831617835250505050604051806060016040528060328152602001614235603291398773ffffffffffffffffffffffffffffffffffffffff16613d579092919063ffffffff16565b90506000818060200190516020811015613a6b57600080fd5b8101908080519060200190929190505050905063150b7a0260e01b7bffffffffffffffffffffffffffffffffffffffffffffffffffffffff1916817bffffffffffffffffffffffffffffffffffffffffffffffffffffffff191614925050505b949350505050565b6000613ae5836000018360001b613d6f565b905092915050565b600080836001016000848152602001908152602001600020541415905092915050565b60008083600101600084815260200190815260200160002054905060008114613bec5760006001820390506000600186600001805490500390506000866000018281548110613b5b57fe5b9060005260206000200154905080876000018481548110613b7857fe5b9060005260206000200181905550600183018760010160008381526020019081526020016000208190555086600001805480613bb057fe5b60019003818190600052602060002001600090559055866001016000878152602001908152602001600020600090556001945050505050613bf2565b60009150505b92915050565b6000613c048383613e88565b613c5d578260000182908060018154018082558091505060019003906000526020600020016000909190919091505582600001805490508360010160008481526020019081526020016000208190555060019050613c62565b600090505b92915050565b6000808460010160008581526020019081526020016000205490506000811415613d0f57846000016040518060400160405280868152602001858152509080600181540180825580915050600190039060005260206000209060020201600090919091909150600082015181600001556020820151816001015550508460000180549050856001016000868152602001908152602001600020819055506001915050613d3d565b82856000016001830381548110613d2257fe5b90600052602060002090600202016001018190555060009150505b9392505050565b600080823b905060008111915050919050565b6060613d668484600085613eab565b90509392505050565b60008083600101600084815260200190815260200160002054905060008114613e7c5760006001820390506000600186600001805490500390506000866000018281548110613dba57fe5b9060005260206000209060020201905080876000018481548110613dda57fe5b9060005260206000209060020201600082015481600001556001820154816001015590505060018301876001016000836000015481526020019081526020016000208190555086600001805480613e2d57fe5b6001900381819060005260206000209060020201600080820160009055600182016000905550509055866001016000878152602001908152602001600020600090556001945050505050613e82565b60009150505b92915050565b600080836001016000848152602001908152602001600020541415905092915050565b606082471015613f06576040517f08c379a000000000000000000000000000000000000000000000000000000000815260040180806020018281038252602681526020018061428b6026913960400191505060405180910390fd5b613f0f85613d44565b613f81576040517f08c379a000000000000000000000000000000000000000000000000000000000815260040180806020018281038252601d8152602001807f416464726573733a2063616c6c20746f206e6f6e2d636f6e747261637400000081525060200191505060405180910390fd5b6000808673ffffffffffffffffffffffffffffffffffffffff1685876040518082805190602001908083835b60208310613fd05780518252602082019150602081019050602083039250613fad565b6001836020036101000a03801982511681845116808217855250505050505090500191505060006040518083038185875af1925050503d8060008114614032576040519150601f19603f3d011682016040523d82523d6000602084013e614037565b606091505b5091509150614047828286614053565b92505050949350505050565b6060831561406357829050614118565b6000835111156140765782518084602001fd5b816040517f08c379a00000000000000000000000000000000000000000000000000000000081526004018080602001828103825283818151815260200191508051906020019080838360005b838110156140dd5780820151818401526020810190506140c2565b50505050905090810190601f16801561410a5780820380516001836020036101000a031916815260200191505b509250505060405180910390fd5b9392505050565b828054600181600116156101000203166002900490600052602060002090601f016020900481019282614155576000855561419c565b82601f1061416e57805160ff191683800117855561419c565b8280016001018555821561419c579182015b8281111561419b578251825591602001919060010190614180565b5b5090506141a991906141f5565b5090565b50805460018160011615610100020316600290046000825580601f106141d357506141f2565b601f0160209004906000526020600020908101906141f191906141f5565b5b50565b5b8082111561420e5760008160009055506001016141f6565b509056fe456e756d657261626c655365743a20696e646578206f7574206f6620626f756e64734552433732313a207472616e7366657220746f206e6f6e20455243373231526563656976657220696d706c656d656e7465724552433732313a207472616e7366657220746f20746865207a65726f2061646472657373416464726573733a20696e73756666696369656e742062616c616e636520666f722063616c6c4552433732313a206f70657261746f7220717565727920666f72206e6f6e6578697374656e7420746f6b656e4552433732313a20617070726f76652063616c6c6572206973206e6f74206f776e6572206e6f7220617070726f76656420666f7220616c6c4552433732313a2062616c616e636520717565727920666f7220746865207a65726f20616464726573734552433732313a206f776e657220717565727920666f72206e6f6e6578697374656e7420746f6b656e456e756d657261626c654d61703a20696e646578206f7574206f6620626f756e64734552433732313a20617070726f76656420717565727920666f72206e6f6e6578697374656e7420746f6b656e4552433732314d657461646174613a2055524920736574206f66206e6f6e6578697374656e7420746f6b656e4552433732313a207472616e73666572206f6620746f6b656e2074686174206973206e6f74206f776e4552433732314d657461646174613a2055524920717565727920666f72206e6f6e6578697374656e7420746f6b656e4552433732313a20617070726f76616c20746f2063757272656e74206f776e65724552433732313a207472616e736665722063616c6c6572206973206e6f74206f776e6572206e6f7220617070726f766564a2646970667358221220c319e3310518c5566debbd97d0b83c5272bfde676872571a1e6cb6cd9ce1f19664736f6c63430007060033",
  "immutableReferences": {},
  "source": "pragma solidity >=0.6.0 <0.8.0;\n\nimport \"@openzeppelin/contracts/token/ERC721/ERC721.sol\";\n\ncontract Francistan is ERC721 {\n    uint256 private _tokenIds=0;\n    mapping (address => bool) public breeders;\n    mapping (uint256 => Auction) public auction;\n    mapping (uint256 => Fight) public fight;\n    mapping (uint256 => Animal) public animals;\n    address admin;\n    uint randNonce = 0; \n\n    struct Fight{\n        uint256 tokenId;\n        uint256 stake;\n        bool isActive;\n    }\n    struct Auction{\n        uint256 price;\n        uint256 time;\n        bool isActive;\n        address payable bidder;\n    }\n    struct Animal{\n        string feathers;\n        uint256 weight;\n        uint256 size;\n        uint256 aggressivity;\n        bool alive;\n    }\n    constructor() ERC721(\"Francistan\", \"Coq\") public {\n        admin = msg.sender;\n    }\n\n    modifier isBreeder(){\n        require(breeders[msg.sender]);\n        _;\n    }\n    modifier isAlive(uint256 tokenId){\n        require(animals[tokenId].alive);\n        _;\n    }\n\n    function registerBreeder(address breeder) public {\n        require(msg.sender==admin);\n        breeders[breeder]=true;\n    }\n    \n    function declareAnimal(address breeder, string memory feathers, uint256 weight,uint256 size,uint256 aggressivity) isBreeder public returns(uint256){\n        _tokenIds++;\n        uint256 newItemId = _tokenIds;\n        _mint(breeder, newItemId);\n        animals[newItemId]=Animal(feathers,weight,size,aggressivity,true);\n        _setTokenURI(newItemId, \"\");\n        return newItemId;\n    }\n\n    function deadAnimal(uint256 tokenId) public isBreeder isAlive(tokenId){\n        require(msg.sender==ownerOf(tokenId));\n        animals[tokenId].alive =false;\n        _burn(tokenId);\n    }\n\n    function breedAnimal(uint256 tokenId1,uint256 tokenId2) public isBreeder isAlive(tokenId1) isAlive(tokenId2){\n        require(msg.sender==ownerOf(tokenId1) && msg.sender==ownerOf(tokenId2));\n        string memory feathersChild = animals[tokenId2].feathers;\n        uint256 weightChild = (animals[tokenId1].weight+ animals[tokenId2].weight)/2;\n        uint256 sizeChild = (animals[tokenId1].size+ animals[tokenId2].size)/2;\n        uint256 aggressivityChild = (animals[tokenId1].aggressivity+ animals[tokenId2].aggressivity)/2;\n        declareAnimal(msg.sender,feathersChild , weightChild, sizeChild, aggressivityChild);\n    }\n\n    function createAuction(uint256 price, uint256 tokenId) public isBreeder isAlive(tokenId){\n        require(msg.sender==ownerOf(tokenId));\n        auction[tokenId]=Auction(price,block.timestamp+60*60*24*2,true,msg.sender);\n    }\n\n    function bidOnAuction(uint256 tokenId) public payable isBreeder{\n        require(auction[tokenId].time>block.timestamp);\n        require(auction[tokenId].price<msg.value);\n        require(auction[tokenId].isActive);\n        if (auction[tokenId].bidder!= ownerOf(tokenId)){\n            auction[tokenId].bidder.transfer(auction[tokenId].price);\n        }\n        auction[tokenId].price=msg.value;\n        auction[tokenId].bidder=msg.sender;\n    }\n\n    function acceptAuction(uint256 tokenId) public {\n        approve(auction[tokenId].bidder,tokenId);\n        require(auction[tokenId].time<=block.timestamp);\n        auction[tokenId].isActive=false;\n    }\n\n    function claimAuction(uint256 tokenId) public isBreeder{\n        require(msg.sender==auction[tokenId].bidder);\n        require(!auction[tokenId].isActive);\n        transferFrom(ownerOf(tokenId),auction[tokenId].bidder,tokenId);\n    }\n\n    function proposeFight(uint256 tokenId) public payable isBreeder isAlive(tokenId){\n        require(ownerOf(tokenId)==msg.sender);\n        fight[tokenId]=Fight(tokenId, msg.value, true);\n    }\n    \n    function agreeToFight(uint256 otherTokenId, uint256 yourTokenId) public payable isBreeder isAlive(yourTokenId){\n        require(msg.value==fight[otherTokenId].stake);\n        require(otherTokenId != yourTokenId);\n        fight[otherTokenId].tokenId=yourTokenId;\n        uint256 result = animalFighting(animals[otherTokenId].aggressivity+animals[yourTokenId].aggressivity);\n        if (result<= animals[otherTokenId].aggressivity) {\n            payable(ownerOf(otherTokenId)).transfer(fight[otherTokenId].stake*2);\n            deadAnimal(otherTokenId);\n        }\n        else {\n            payable(ownerOf(yourTokenId)).transfer(fight[otherTokenId].stake*2);\n            deadAnimal(yourTokenId);\n        }\n    }\n\n    function animalFighting(uint256 odd) internal returns(uint){\n        \n        randNonce++;   \n       return uint(keccak256(abi.encodePacked(block.timestamp,  \n                                              msg.sender,  \n                                              randNonce))) % odd; \n    }\n\n    function uint2str(uint _i) internal pure returns (string memory _uintAsString) {\n    if (_i == 0) {\n        return \"0\";\n    }\n    uint j = _i;\n    uint len;\n    while (j != 0) {\n        len++;\n        j /= 10;\n    }\n    bytes memory bstr = new bytes(len);\n    uint k = len - 1;\n    while (_i != 0) {\n        bstr[k--] = byte(uint8(48 + _i % 10));\n        _i /= 10;\n    }\n    return string(bstr);\n    }\n}",
  "sourcePath": "/Users/lucaslevy/la_cryptoferme/contracts/Token.sol",
  "compiler": {
    "name": "solc",
    "version": "0.7.6+commit.7338295f.Emscripten.clang"
  },
  "schemaVersion": "3.3.4",
  "updatedAt": "2021-03-20T14:28:06.403Z",
  "networkType": "ethereum",
  "devdoc": {
    "kind": "dev",
    "methods": {
      "approve(address,uint256)": {
        "details": "See {IERC721-approve}."
      },
      "balanceOf(address)": {
        "details": "See {IERC721-balanceOf}."
      },
      "baseURI()": {
        "details": "Returns the base URI set via {_setBaseURI}. This will be automatically added as a prefix in {tokenURI} to each token's URI, or to the token ID if no specific URI is set for that token ID."
      },
      "getApproved(uint256)": {
        "details": "See {IERC721-getApproved}."
      },
      "isApprovedForAll(address,address)": {
        "details": "See {IERC721-isApprovedForAll}."
      },
      "name()": {
        "details": "See {IERC721Metadata-name}."
      },
      "ownerOf(uint256)": {
        "details": "See {IERC721-ownerOf}."
      },
      "safeTransferFrom(address,address,uint256)": {
        "details": "See {IERC721-safeTransferFrom}."
      },
      "safeTransferFrom(address,address,uint256,bytes)": {
        "details": "See {IERC721-safeTransferFrom}."
      },
      "setApprovalForAll(address,bool)": {
        "details": "See {IERC721-setApprovalForAll}."
      },
      "supportsInterface(bytes4)": {
        "details": "See {IERC165-supportsInterface}. Time complexity O(1), guaranteed to always use less than 30 000 gas."
      },
      "symbol()": {
        "details": "See {IERC721Metadata-symbol}."
      },
      "tokenByIndex(uint256)": {
        "details": "See {IERC721Enumerable-tokenByIndex}."
      },
      "tokenOfOwnerByIndex(address,uint256)": {
        "details": "See {IERC721Enumerable-tokenOfOwnerByIndex}."
      },
      "tokenURI(uint256)": {
        "details": "See {IERC721Metadata-tokenURI}."
      },
      "totalSupply()": {
        "details": "See {IERC721Enumerable-totalSupply}."
      },
      "transferFrom(address,address,uint256)": {
        "details": "See {IERC721-transferFrom}."
      }
    },
    "version": 1
  },
  "userdoc": {
    "kind": "user",
    "methods": {},
    "version": 1
  }
}